:100000000C9492000C94BA000C94BA000C94BA00B0
:100010000C94BA000C944B200C94BA000C94BA00C7
:100020000C94BA000C94BA000C94BA000C94701E94
:100030000C94BA000C94BA000C94BA000C94BA0058
:100040000C94B5210C94BA000C9425220C94FF2139
:100050000C94BA000C94BA000C94BA000C94BA0038
:100060000C942C1F0C94BA00036EDB363D9A9999C0
:10007000993DABAAAA2A3E000000803F084AD73B20
:100080003BCE016E84BCBFFDC12F3D6C74319ABD67
:1000900056833DDA3D00C77F11BED9E4BB4C3E918B
:1000A0006BAAAABE000000803F072C7AA5BA6CC5D7
:1000B00090DA3B9365FC8BBC53F810FD3C56928361
:1000C0004DBD879D3AB63DCBC9BF5BBE73DA0FC944
:1000D0003F0000000000240027002A00000000006C
:1000E000250028002B000404040404040404020274
:1000F00002020202030303030303010204081020A7
:1001000040800102040810200102040810200000B1
:1001100000080002010000030407000000000000C6
:1001200000000D2311241FBECFEFD8E0DEBFCDBFEE
:1001300012E0A0E0B1E0E2EAF5E602C005900D921F
:10014000A236B107D9F725E0A2E6B2E001C01D92C0
:10015000A935B207E1F710E0C2E9D0E004C0219769
:10016000FE010E94122EC139D107C9F70E945D25F8
:100170000C94CF320C9400002EEA37E441EC5FE39C
:100180006091EB047091EC048091ED049091EE0489
:100190000E94182E0E94892F7195619571097093A4
:1001A0004C0560934B056091C3047091C404809129
:1001B000C5049091C6040E94892F719561957109BB
:1001C0007093500560934F0524E13EEA47E050E408
:1001D0006091EF047091F0048091F1049091F20429
:1001E0000E94192E0E94892F719561957109709353
:1001F0004A05609349056091C7047091C8048091D5
:10020000C9049091CA040E94892F71956195710962
:10021000709352056093510520E030E0A901609190
:10022000F3047091F4048091F5049091F6040E9417
:10023000192E0E94892F70934E0560934D05609191
:10024000CB047091CC048091CD049091CE040E9497
:10025000892F709354056093530508958091360556
:10026000909137059C012C5D35402531310510F406
:100270008CED95E0909335058093340580913D0594
:1002800090913E059C012C5D35402531310510F4DF
:100290008CED95E090933C0580933B05809144055F
:1002A000909145059C012C5D35402531310510F4B8
:1002B0008CED95E0909343058093420508954F920D
:1002C0005F926F927F928F929F92AF92BF92CF92E6
:1002D000DF92EF92FF92CF93DF9300D000D000D057
:1002E000CDB7DEB79E838D837B018FB7F8942091C5
:1002F0000F03309110034091110350911203298391
:100300003A834B835C838FBFED81FE81848995891D
:10031000A689B789281B390B4A0B5B0BCA01B901A7
:100320000E94BF2F2FE632E143E85AE30E94D93002
:100330002B013C01B701FF0C880B990B0E94C12FC8
:100340006B017C01A30192010E94D930AD81BE8175
:100350001C962D913D914D915C911F970E94192EF5
:100360004B015C01ED81FE8184869586A686B78669
:100370002089318942895389C701B6010E94182E0C
:10038000A30192010E94172F2B013C01AD81BE8178
:100390005096CD92DD92ED92FC92539729813A814D
:1003A0004B815C8154962D933D934D935C9357976D
:1003B0002D913D914D915C91C701B6010E94D930BC
:1003C0006B017C01ED81FE8120853185428553855D
:1003D000C501B4010E94D9309B01AC01C701B6012F
:1003E0000E94192E6B017C01AD81BE8114962D9166
:1003F0003D914D915C911797C301B2010E94D93094
:100400009B01AC01C701B6010E94192E0E94892FE1
:10041000CB0126960FB6F894DEBF0FBECDBFDF919D
:10042000CF91FF90EF90DF90CF90BF90AF909F90D3
:100430008F907F906F905F904F900895FC01108A8D
:10044000118A128A138A14861586168617862FB784
:10045000F89480910F0390911003A0911103B09133
:1004600012032FBF848B958BA68BB78B0895DC016D
:10047000EC91EC3090F511968C91119728E830E0D2
:10048000281B310987FD3395220F331F220F331F9D
:100490006217730784F012968C9128E532E0281BCE
:1004A000310987FD3395220F331F220F331F621747
:1004B00073070CF49B0122503109220F331F4FB7F1
:1004C000F8948E2F90E0FC01EE0FFF1FE80FF91F4C
:1004D000E551FD4F328321834FBF08952091C4021F
:1004E000260F3327331F21323105ECF420918C0382
:1004F000FC0190E080E0243069F082E00895A09152
:10050000C4022191AC014E555D4FA40FB52FB11D12
:100510002C930196861798F38091C402680F60931C
:10052000C40280E0089581E0089508950895089533
:10053000E091210380912003E81730F4F0E0E459C2
:10054000FC4F808190E008958FEF9FEF0895909188
:100550002103809120032FEF3FEF981748F4E92FF4
:10056000F0E0E459FC4F208130E09F5F909321033D
:10057000C90108958091200390912103891B990B53
:100580000895CF92DF92EF92FF920F931F93CF9334
:10059000DF937C01CB018A0120912203222389F081
:1005A000EB016B01C40ED51ECC15DD0569F0699118
:1005B000D701ED91FC910190F081E02DC7010995E3
:1005C000F3CF642F0E946E02C801DF91CF911F917B
:1005D0000F91FF90EF90DF90CF900895CF93DF932E
:1005E0001F92CDB7DEB76983209122032223F9F051
:1005F00020914503203258F021E030E0FC013383A4
:10060000228390E080E00F90DF91CF910895809158
:100610002303E82FF0E0EC5DFC4F998190838F5F1E
:10062000809323038093450381E090E0ECCF61E069
:10063000CE0101960E946E02F7CFFC01538D448DCE
:10064000252F30E0842F90E0821B930B541710F07D
:10065000CF96089501970895FC01918D828D98178A
:1006600061F0A28DAE0FBF2FB11D5D968C91928D62
:100670009F5F9F73928F90E008958FEF9FEF089593
:10068000FC01918D828D981731F0828DE80FF11D5C
:10069000858D90E008958FEF9FEF0895FC01918D77
:1006A000228D892F90E0805C9F4F821B91098F7370
:1006B00099270895FC01A48DA80FB92FB11DA35A45
:1006C000BF4F2C91848D90E001968F739927848F72
:1006D000A689B7892C93A089B1898C918370806495
:1006E0008C93938D848D981306C00288F389E02D36
:1006F00080818F7D80830895EF92FF920F931F93E7
:10070000CF93DF93EC0181E0888F9B8D8C8D9813C4
:100710001AC0E889F989808185FF15C09FB7F894D0
:10072000EE89FF896083E889F9898081837080641C
:1007300080839FBF81E090E0DF91CF911F910F9167
:10074000FF90EF900895F62E0B8D10E00F5F1F4F76
:100750000F731127E02E8C8D8E110CC00FB607FC85
:10076000FACFE889F989808185FFF5CFCE010E9413
:100770005A03F1CFEB8DEC0FFD2FF11DE35AFF4F24
:10078000F0829FB7F8940B8FEA89FB8980818062A1
:10079000CFCFCF93DF93EC01888D8823B9F0AA895E
:1007A000BB89E889F9898C9185FD03C0808186FD2C
:1007B0000DC00FB607FCF7CF8C9185FFF2CF80817B
:1007C00085FFEDCFCE010E945A03E9CFDF91CF9193
:1007D00008958EE993E00E944E0321E0892B09F4ED
:1007E00020E0822F089580E090E0892B29F00E947C
:1007F000E90381110C940000089590E0FC01E25F90
:10080000FE4F2491FC01E650FF4F3491FC01EA5168
:10081000FF4FE491EE23C9F0222339F0233001F198
:10082000A8F4213019F1223029F1F0E0EE0FFF1F7A
:10083000E452FF4FA591B4918FB7F894EC916111F8
:1008400026C030953E233C938FBF08952730A9F0F2
:100850002830C9F0243049F7809180008F7D03C093
:10086000809180008F7780938000DFCF84B58F7771
:1008700084BDDBCF84B58F7DFBCF8091B0008F77B7
:100880008093B000D2CF8091B0008F7DF9CF3E2B06
:10089000DACF10928C0381E080936B031092660391
:1008A00061E082E10E94FD0361E083E10E94FD03BB
:1008B000E9EBF0E080818E7F808380818D7F808373
:1008C00088E48093B80085E48093BC000895CF93BA
:1008D000DF9391E09093A1028823B9F0C091B80012
:1008E000D091BA008091BC008A7B8093BC0060E00C
:1008F00082E10E94FD0360E083E10E94FD030E940B
:100900004904D093BA00C093B800DF91CF91089505
:100910003FB7F89480916B0290916C02A0916D02A8
:10092000B0916E0226B5A89B05C02F3F19F0019625
:10093000A11DB11D3FBFBA2FA92F982F8827BC0139
:10094000CD01620F711D811D911D42E0660F771F61
:10095000881F991F4A95D1F70895CF92DF92EF92A1
:10096000FF920F931F93CF93DF93D82FC62F61323F
:1009700008F098C00E9488046B017C0180918C0370
:1009800081116BC081E080938C0380936B039FEF98
:1009900090936A03109269039C0F9093680380936D
:1009A000670380916703DD0FD82BD0936703809195
:1009B0006603813009F078C0109266030E948804B3
:1009C0006B017C01809167038093BB0080918E0353
:1009D00090918F03A0919003B0919103892B8A2B62
:1009E0008B2BA1F00E94880400918E0310918F033D
:1009F00020919003309191036C197D098E099F0914
:100A0000061717072807390708F448C08091BC006B
:100A100083FDD8CF85EC8093BC000E9488046B01D5
:100A20007C0180918C03813009F440C0809169037E
:100A30008C1710F4C0916903E6E4F3E0ACE6B3E090
:100A400080E08C1355C08C2FDF91CF911F910F91B7
:100A5000FF90EF90DF90CF90089580918E0390915A
:100A60008F03A0919003B0919103892B8A2B8B2B3C
:100A700009F484CF0E94880400918E0310918F03A3
:100A800020919003309191036C197D098E099F0983
:100A9000061717072807390708F070CF80918D03D4
:100AA0000E946704C0E0CFCF85EEB5CF80918E0362
:100AB00090918F03A0919003B0919103892B8A2B81
:100AC0008B2B09F4AECF0E94880400918E03109105
:100AD0008F0320919003309191036C197D098E0949
:100AE0009F09061717072807390708F09ACFD6CFAE
:100AF00091919D938F5FA5CF8F929F92AF92BF925E
:100B0000CF92DF92EF92FF920F931F93CF93DF93D9
:100B1000D0914503D13208F0D7C0182FC0914403BB
:100B20000E9488046B017C0180918C0381116BC051
:100B300082E080938C0310936B038FEF80936A03A2
:100B400010926903D0936803A4E2B3E0E6E4F3E013
:100B500080E0D81391C01092670380916703CC0F97
:100B6000C82BC093670380916603813009F088C069
:100B7000109266030E9488046B017C0180916703D8
:100B80008093BB0080918E0390918F03A09190037E
:100B9000B0919103892B8A2B8B2BA1F00E948804A2
:100BA00000918E0310918F03209190033091910357
:100BB0006C197D098E099F09061717072807390741
:100BC00008F442C08091BC0083FDD8CF85EC8093AF
:100BD000BC000E9488046B017C0180918C038230F0
:100BE00009F450C080916A038F3F09F46FC080916F
:100BF0006A03803209F46CC080916A03803309F47F
:100C000069C084E026C080918E0390918F03A091EB
:100C10009003B0919103892B8A2B8B2B09F484CFFD
:100C20000E94880480908E0390908F03A090900380
:100C3000B09091036C197D098E099F09861697065D
:100C4000A806B90608F070CF80918D030E94670452
:100C500085E0109223031092450310922203DF9146
:100C6000CF911F910F91FF90EF90DF90CF90BF90A9
:100C7000AF909F908F9008959D9191938F5F69CFD2
:100C800085EEA5CF80918E0390918F03A091900364
:100C9000B0919103892B8A2B8B2B09F49ECF0E9454
:100CA000880400918E0310918F032091900330915E
:100CB00091036C197D098E099F09061717072807EC
:100CC000390708F08ACFC0CF81E0C3CF80E0C1CF21
:100CD00082E0BFCF83E0BDCF8F929F92AF92BF9251
:100CE000CF92DF92EF92FF924B015C010E94880449
:100CF0006B017C010E9488046C197D098E099F0993
:100D0000683E734081059105A8F321E0821A91089D
:100D1000A108B10888EEC80E83E0D81EE11CF11CC2
:100D200081149104A104B10429F7FF90EF90DF90A2
:100D3000CF90BF90AF909F908F900895AF92BF9249
:100D4000CF92DF92EF92FF920F931F93CF93DF9397
:100D50006C017B018B01040F151FEB015E01AE18C6
:100D6000BF08C017D10759F06991D601ED91FC91E8
:100D70000190F081E02DC6010995892B79F7C50115
:100D8000DF91CF911F910F91FF90EF90DF90CF9067
:100D9000BF90AF90089590E080E00895FC0101902D
:100DA0000020E9F73197AF01481B590BBC018EE9D0
:100DB00093E00C949E068F929F92AF92BF920F93F6
:100DC0001F93CF93DF93CDB7DEB7A1970FB6F894FB
:100DD000DEBF0FBECDBF19A2423008F44AE08E013B
:100DE0000F5D1F4F842E912CB12CA12CA5019401D5
:100DF0000E94C12DE62FB901CA01EA30F4F4E05D8A
:100E0000D801EE938D01232B242B252B79F790E02D
:100E100080E0109719F0CD010E94CE06A1960FB682
:100E2000F894DEBF0FBECDBFDF91CF911F910F9120
:100E3000BF90AF909F908F900895E95CE1CFCF93E2
:100E4000DF930E94CE06EC018CE591E00E94CE0675
:100E50008C0F9D1FDF91CF9108954F925F926F92FB
:100E60007F928F929F92AF92BF92CF92DF92EF923A
:100E7000FF926B017C01AC019B010E9490318823A1
:100E8000C1F08FE591E00E94CE067C018CE591E0F7
:100E90000E94CE068E0D9F1DFF90EF90DF90CF90A9
:100EA000BF90AF909F908F907F906F905F904F908A
:100EB000089546015701E894B7F82FEF3FEF4FE749
:100EC0005FE7C501B4010E94903181110DC02FEF81
:100ED0003FEF4FE75FE7C501B4010E94122F1816DC
:100EE0001CF483E691E0CFCF2FEF3FEF4FE75FE4B5
:100EF000C701B6010E94CC3018161CF487E691E0B9
:100F0000C2CF2FEF3FEF4FE75FECC701B6010E9462
:100F1000122F87FDF3CF20E030E0A901C701B60111
:100F20000E94122FB12CA12C87FF0AC06DE28EE91E
:100F300093E00E947C035C01F7FAF094F7F8F094D8
:100F40002AE037ED43EA5BE3C701B6010E94192EA0
:100F50002B013C010E94902F6B017C010E94BF2F4E
:100F60009B01AC01C301B2010E94182E2B013C0170
:100F70004AE0C701B6010E94DB067C01EA0CFB1CBB
:100F80006EE28EE993E00E947C03E80EF91E20E0F9
:100F900030E040E251E4C301B2010E94D9302B019C
:100FA0003C010E94902F4B01B12CA12C4AE0C501BD
:100FB000B4010E94DB06E80EF91EC501B4010E94CF
:100FC000BF2F9B01AC01C301B2010E94182E20E08B
:100FD00030E040E251E40E94D9300E94902F90E02E
:100FE00080E04AE00E94DB06E80EF91E4FCFCF9367
:100FF000DF93FC012081273091F0EC018BE691E03A
:101000000E94CE06688170E090E080E04AE00E9495
:10101000DB068CE591E0DF91CF910C94CE06DF9159
:10102000CF9108950F931F93CF93DF93C82FD42FA1
:10103000890180912E0590912F0521E020932203B4
:10104000C09344031092230310924503DC01ED91F9
:10105000FC910190F081E02D099580E00E947C05D3
:1010600080933005882321F080E395E00E94F70704
:101070006D2F8C2F0E94AD041092210380932003CA
:10108000C0E080912E0590912F05DC01ED91FC913F
:101090000084F185E02D0995892B89F080912E053A
:1010A00090912F05DC01ED91FC910284F385E02DF8
:1010B0000995F801EC0FF11D8083CF5FE2CFDF913E
:1010C000CF911F910F910895CF93C82F80912E0536
:1010D00090912F0521E020932203C09344031092A6
:1010E000230310924503DC01ED91FC910190F08106
:1010F000E02D099580E00E947C05809330058823CF
:1011000021F080E395E00E94F70761E08C2F0E94B8
:10111000AD04109221038093200380912E059091BD
:101120002F05DC01ED91FC910084F185E02D0995FE
:10113000892B69F080912E0590912F05DC01ED91AE
:10114000FC910284F385E02D0995CF91089580E00C
:10115000FCCFCF93C42FA0912E05B0912F0591E025
:10116000909322038093440310922303109245032B
:10117000ED91FC9111970190F081E02DCD01099541
:1011800080912E0590912F05DC01ED91FC9101904D
:10119000F081E02D6C2F099581E00E947C05809301
:1011A0003005882329F080E395E0CF910C94F70770
:1011B000CF91089580914204909143048430910529
:1011C00008F0C6C0880F991F880F991FFC01E85DC1
:1011D000FE4F80819181A281B38180934D049093D1
:1011E0004E04A0934F04B093500480914404909116
:1011F00045048430910508F0AFC0880F991F880F0F
:10120000991FFC01E85EFE4F80819181A281B3812C
:101210008093510490935204A0935304B0935404C8
:101220008091460490914704009709F49DC001976E
:1012300009F096C08FEF9BEEAFEBBFE380935504B0
:1012400090935604A0935704B093580440E86BE67B
:10125000809141040E94A90864E670E080E090E07B
:101260000E946C0640E06BE6809141040E94A90850
:1012700064E670E080E090E00E946C0641E06BE67E
:10128000809141040E94A90868EC70E080E090E041
:101290000E946C0640914A046AE1809141040E94D8
:1012A000A9084091480469E1809141040E94A9087D
:1012B0006BE1809141040E94640840914404440F12
:1012C000440F440F8470842B40914904409543702F
:1012D000482B6BE1809141040E94A9086CE1809148
:1012E00041040E94640840914204440F440F440F9B
:1012F0008770482B6CE1809141040E94A9086DE140
:10130000809141040E94640840914B04440F440FB3
:10131000440F40954870807F482B80914C04877023
:10132000482B6DE1809141040E94A90842E267E3E5
:10133000809141040E94A90841E068E38091410442
:101340000E94A90864E670E080E090E00C946C06CE
:1013500080E090E0DC0141CF80E090E0DC0158CFFC
:1013600080E090E0DC016ACF8FEF9BEEAFEBB0E462
:1013700065CF2F923F924F925F926F927F928F92A2
:101380009F92AF92BF92CF92DF92EF92FF920F9314
:101390001F93CF93DF93CDB7DEB7CB5AD1090FB6EA
:1013A000F894DEBF0FBECDBF20912B05C757DF4F8E
:1013B0002883C958D040211124C0C757DF4F188255
:1013C000C958D040C757DF4F8881C958D040C5554C
:1013D000DF4F0FB6F894DEBF0FBECDBFDF91CF91C8
:1013E0001F910F91FF90EF90DF90CF90BF90AF9043
:1013F0009F908F907F906F905F904F903F902F9035
:1014000008956AE3809141040E94640880FFD5CF6B
:101410009E012F5F3F4F4EE06BE3809141040E949D
:10142000120869817A817627672776278B809C80CE
:10143000982489249824AD80BE80BA24AB24BA2491
:101440000F811885102701271027C984DA84DC242E
:10145000CD24DC24EB84FC84FE24EF24FE242D84A4
:101460003E8432242324322440904D0450904E0474
:1014700060904F0470905004072E000C880B990B5D
:101480000E94C12FA30192010E94D9306093B7043A
:101490007093B8048093B9049093BA04B401990C82
:1014A000880B990B0E94C12FA30192010E94D93091
:1014B0006093BB047093BC048093BD049093BE04FE
:1014C000B501BB0C880B990B0E94C12FA30192019F
:1014D0000E94D9306093BF047093C0048093C1040C
:1014E0009093C20410939A0400939904B801110FC9
:1014F000880B990B0E94C12F2CE53FEE46EA53E47E
:101500000E94172F20E030E048EA51E40E94192E93
:1015100060939B0470939C0480939D0490939E041D
:101520008090510490905204A0905304B0905404C1
:10153000B601DD0C880B990B0E94C12FA501940107
:101540000E94D9306093C3047093C4048093C5048F
:101550009093C604B701FF0C880B990B0E94C12F12
:10156000A50194010E94D9306093C7047093C80408
:101570008093C9049093CA04B101330C880B990B72
:101580000E94C12FA50194010E94D9306093CB0421
:101590007093CC048093CD049093CE0462E08CE0F1
:1015A0000E946408182F80FFD3C09E012F5F3F4F19
:1015B00047E063E08CE00E94120811FDC9C08F81F2
:1015C00083FDC6C0A980BA800B811C812D803E801E
:1015D000C0905504D0905604E0905704F090580401
:1015E0002FEF3BEE4FEB5FE3C701B6010E94172FD1
:1015F0002B013C01B501BB0C880B990B0E94C12F3C
:10160000A70196010E94D930209171043091720493
:1016100040917304509174040E94D9304B015C01D5
:1016200020917D0430917E0440917F04509180048C
:10163000C301B2010E94D9309B01AC01C501B401C4
:101640000E94182E2091890430918A0440918B04C5
:1016500050918C040E94D9306093CF047093D004D1
:101660008093D1049093D204B801110F880B990B89
:101670000E94C12FA70196010E94D93020917504C4
:101680003091760440917704509178040E94D930CB
:101690004B015C01209181043091820440918304CC
:1016A00050918404C301B2010E94D9309B01AC0166
:1016B000C501B4010E94182E20918D0430918E0432
:1016C00040918F04509190040E94D9306093D304CC
:1016D0007093D4048093D5049093D604B101330C55
:1016E000880B990B0E94C12FA70196010E94D93047
:1016F0002091790430917A0440917B0450917C04CC
:101700000E94D9306B017C012091850430918604C0
:101710004091870450918804C301B2010E94D930DE
:101720009B01AC01C701B6010E94182E20919104C3
:101730003091920440919304509194040E94D930C6
:101740006093D7047093D8048093D9049093DA04FB
:101750008091B7049091B804A091B904B091BA04F3
:10176000C358DF4F88839983AA83BB83CD57D0406A
:10177000B058C856DF4F88839983AA83BB83C85962
:10178000D0402091BB043091BC044091BD045091E5
:10179000BE04E5962CAF3DAF4EAF5FAFE5978091AD
:1017A000BF049091C004A091C104B091C204E99615
:1017B0008CAF9DAFAEAFBFAFE99725E33AEF4EE8F0
:1017C0005CE36091C3047091C4048091C50490915E
:1017D000C6040E94D930162F072F382E292E60916B
:1017E000C7047091C8048091C9049091CA049058AC
:1017F00025E33AEF4EE85CE30E94D9306BAF7FAB54
:101800008FAF24969FAF24976091CB047091CC0446
:101810008091CD049091CE04905825E33AEF4EE8A4
:101820005CE30E94D93028966FAF289760967FAF0F
:10183000609764968FAF649765969FAF6597209188
:10184000D3043091D4044091D5045091D604C657A6
:10185000DF4F288339834A835B83CA58D040809105
:10186000CF049091D004A091D104B091D204C2577A
:10187000DF4F88839983AA83BB83CE58D040B0586A
:10188000C855DF4F88839983AA83BB83C85AD04049
:101890002091D7043091D8044091D9045091DA04B2
:1018A000CE56DF4F288339834A835B83C259D040A9
:1018B000CA56DF4F19821882C659D0408091290537
:1018C00090912A05CA56DF4F48815981C659D040A8
:1018D0004817590710F00C94401C0E9488046B01B3
:1018E0007C01C0922105D0922205E0922305F0925E
:1018F00024058091250590912605A0912705B0919A
:101900002805A7019601281B390B4A0B5B0BCA015E
:10191000B9010E94BF2FC0922505D0922605E09202
:101920002705F09228052FE632E143E85AE30E94AA
:10193000D9302FE632E143E85AE30E94D9306BAB4D
:101940007CAB8DAB9EAB60931D0570931E058093A1
:101950001F059093200580911B0590911C058130F7
:10196000910509F463C12091DB043091DC044091BE
:10197000DD045091DE042F87388B498B5A8B2091E0
:10198000DF043091E0044091E1045091E2042B8F98
:101990003C8F4D8F5E8F2091E3043091E4044091A1
:1019A000E5045091E6042F8F38A349A35AA3209150
:1019B000E7043091E8044091E9045091EA042B8B4C
:1019C0003C8B4D8B5E8B029711F40C948B186B8DB6
:1019D0007C8D8D8D9E8D9058212F302F432D522D33
:1019E0000E94D9306B017C012F8D38A149A15AA1E9
:1019F0006BAD7FA98FAD24969FAD24970E94D930FF
:101A00009B01AC01C701B6010E94182E6B017C013D
:101A10002B893C894D895E8928966FAD2897609601
:101A20007FAD609764968FAD649765969FAD65971F
:101A30000E94D9309B01AC01C701B6010E94182E4B
:101A400020E030E040E05FE30E94D9302BA93CA9C0
:101A50004DA95EA90E94D9302F85388949895A89B4
:101A60000E94192E6F8B788F898F9A8F2F853889D6
:101A700049895A89612F702F832D922D0E94D93068
:101A80006B017C012F8D38A149A15AA128966FAD19
:101A9000289760967FAD609764968FAD6497659642
:101AA0009FAD65970E94D9309B01AC01C701B6017B
:101AB0000E94192E6B017C012B893C894D895E891E
:101AC0006BAD7FA98FAD24969FAD24970E94D9302E
:101AD0009B01AC01C701B6010E94182E20E030E046
:101AE00040E05FE30E94D9302BA93CA94DA95EA933
:101AF0000E94D9302B8D3C8D4D8D5E8D0E94192E0C
:101B00006BA37CA38DA39EA32F85388949895A890D
:101B10006BAD7FA98FAD24969FAD24970E94D930DD
:101B20006B017C012B8D3C8D4D8D5E8D28966FADAC
:101B3000289760967FAD609764968FAD64976596A1
:101B40009FAD65970E94D9309B01AC01C701B601DA
:101B50000E94182E6B017C012B893C894D895E897E
:101B6000612F702F832D922D0E94D9309B01AC01E3
:101B7000C701B6010E94192E20E030E040E05FE38B
:101B80000E94D9302BA93CA94DA95EA90E94D93049
:101B90002F8D38A149A15AA10E94192E2B013C0179
:101BA0002F85388949895A8928966FAD289760967C
:101BB0007FAD609764968FAD649765969FAD65978E
:101BC0000E94D9306B017C012B8D3C8D4D8D5E8D3B
:101BD0006BAD7FA98FAD24969FAD24970E94D9301D
:101BE0009B01AC01C701B6010E94192E6B017C015B
:101BF0002F8D38A149A15AA1612F702F832D922DCD
:101C00000E94D9309B01AC01C701B6010E94182E79
:101C100020E030E040E05FE30E94D9302BA93CA9EE
:101C20004DA95EA90E94D9300C94A01BC358DF4F68
:101C3000288139814A815B81CD57D040CA01B901E1
:101C40000E94D9306B017C01E5962CAD3DAD4EADC7
:101C50005FADE597CA01B9010E94D9309B01AC0183
:101C6000C701B6010E94192E6B017C01E9962CADCB
:101C70003DAD4EAD5FADE997CA01B9010E94D930C3
:101C80009B01AC01C701B6010E94192E6B017C01BA
:101C900020E030E0A9010E94122F882311F40C9457
:101CA0007B18C701B6010E944C314B015C01C6573D
:101CB000DF4F288139814A815B81CA58D040CA01EF
:101CC000B9010E94D9306B017C01C257DF4F2881D6
:101CD00039814A815B81CE58D040CA01B9010E9446
:101CE000D9309B01AC01C701B6010E94192E6B01CE
:101CF0007C01CE56DF4F288139814A815B81C259F0
:101D0000D040CA01B9010E94D9309B01AC01C70182
:101D1000B6010E94192E6B017C0120E030E0A90180
:101D20000E94122F882311F40C947B188091DB04FD
:101D30009091DC04A091DD04B091DE048B8F9C8F28
:101D4000AD8FBE8F2091DF043091E0044091E1041B
:101D50005091E2042B8B3C8B4D8B5E8B4090E304C7
:101D60005090E4046090E5047090E6048091E704EC
:101D70009091E804A091E904B091EA048F87988BD0
:101D8000A98BBA8BA501940160E070E080E89FE325
:101D90000E94172FED966CAF7DAF8EAF9FAFED9782
:101DA000C701B6010E944C319B01AC0160E070E0BC
:101DB00080E89FE30E94172F6B017C01AC019B011F
:101DC000C657DF4F688179818A819B81CA58D0408C
:101DD0000E94D9306BA77CA78DA79EA7A70196016B
:101DE000C855DF4F688179818A819B81C85AD0406C
:101DF0000E94D9306F8B788F898F9A8FA7019601B7
:101E0000CE56DF4F688179818A819B81C259D0404B
:101E10000E94D9306BA37CA38DA39EA32B8D3C8DF8
:101E20004D8D5E8DCA01B9010E94192E6FA378A74E
:101E300089A79AA79B01AC016BA57CA58DA59EA542
:101E40000E94D930E1966CAF7DAF8EAF9FAFE19726
:101E50002FA138A549A55AA56F89788D898D9A8DAE
:101E60000E94D930CF57DF4F688379838A839B8361
:101E7000C158D0402FA138A549A55AA56BA17CA176
:101E80008DA19EA10E94D9304B015C012B893C8918
:101E90004D895E89CA01B9010E94192EA9966CAFBD
:101EA0007DAF8EAF9FAFA9979B01AC016BA57CA5C1
:101EB0008DA59EA50E94D930CB57DF4F68837983CB
:101EC0008A839B83C558D040A3019201C301B2010C
:101ED0000E94192EAD966CAF7DAF8EAF9FAFAD97C0
:101EE0002F85388949895A89CA01B9010E94192E5A
:101EF000C456DF4F688379838A839B83CC59D04053
:101F00002B8D3C8D4D8D5E8DCA01B9010E94D9305B
:101F10006D966CAF7DAF8EAF9FAF6D972B893C896F
:101F20004D895E896B8D7C8D8D8D9E8D0E94D93003
:101F3000A5966CAF7DAF8EAF9FAFA597A301920121
:101F40006B8D7C8D8D8D9E8D0E94D930C056DF4F5C
:101F5000688379838A839B83C05AD0402B893C89CC
:101F60004D895E89CA01B9010E94D9302F966CAFA4
:101F70007DAF8EAF9FAF2F972F85388949895A89BA
:101F80006B897C898D899E890E94D93069966CAF56
:101F90007DAF8EAF9FAF6997A3019201C301B201DC
:101FA0000E94D9306FA778AB89AB9AAB2F8538895F
:101FB00049895A89CA01B9010E94D930A1966CAFEA
:101FC0007DAF8EAF9FAFA1976D962CAD3DAD4EAD61
:101FD0005FAD6D976BA57CA58DA59EA50E94D930A0
:101FE0006B017C01CF57DF4F288139814A815B81AA
:101FF000C158D0406F85788989899A890E94D930E3
:102000009B01AC01C701B6010E94182E6B017C0137
:10201000A5019401C301B2010E94D9309B01AC011A
:10202000C701B6010E94192E6B017C012F962CADC1
:102030003DAD4EAD5FAD2F976BA57CA58DA59EA543
:102040000E94D9309B01AC01C701B6010E94192E34
:102050006B017C01A9962CAD3DAD4EAD5FADA9974E
:102060006F89788D898D9A8D0E94D930A301920154
:102070000E94D9309B01AC01C701B6010E94192E04
:102080006B017C01A9962CAD3DAD4EAD5FADA9971E
:102090006BA17CA18DA19EA10E94D9302F8538898A
:1020A00049895A890E94D9309B01AC01C701B60108
:1020B0000E94192E6B017C012FA538A949A95AA9A4
:1020C0006BA57CA58DA59EA50E94D9309B01AC0176
:1020D000C701B6010E94182E6B017C01A1962CADA0
:1020E0003DAD4EAD5FADA1976BA57CA58DA59EA521
:1020F0000E94D9309B01AC01C701B6010E94182E85
:102100006B017C01E1962CAD3DAD4EAD5FADE1972D
:102110006F85788989899A890E94D9306F8F78A3D1
:1021200089A39AA36D962CAD3DAD4EAD5FAD6D9775
:102130006F89788D898D9A8D0E94D9309B01AC0171
:102140006F8D78A189A19AA10E94192E6F8F78A313
:1021500089A39AA3A50194016B897C898D899E89A5
:102160000E94D9309B01AC016F8D78A189A19AA101
:102170000E94182E4B015C01CB57DF4F288139811B
:102180004A815B81C558D040C301B2010E94D93059
:102190009B01AC01C501B4010E94192E4B015C01E9
:1021A0002F962CAD3DAD4EAD5FAD2F976F89788DDD
:1021B000898D9A8D0E94D9309B01AC01C501B40173
:1021C0000E94182E4B015C012FA538A949A95AA9D4
:1021D0006F89788D898D9A8D0E94D9309B01AC01D1
:1021E000C501B4010E94192E4B015C01AD962CADC6
:1021F0003DAD4EAD5FADAD976BA17CA18DA19EA114
:102200000E94D9302F85388949895A890E94D9304E
:102210009B01AC01C501B4010E94192E4B015C0168
:10222000A1962CAD3DAD4EAD5FADA1976F89788D78
:10223000898D9A8D0E94D9309B01AC01C501B401F2
:102240000E94182E4B015C01A7019601C701B6013F
:102250000E94D9306B017C01A5019401C501B40134
:102260000E94D9309B01AC01C701B6010E94192E12
:102270000E944C316F8F78A389A39AA3E1966CAD2D
:102280007DAD8EAD9FADE1979058A30192010E9464
:10229000D9306B017C01CF57DF4F288139814A81CA
:1022A0005B81C158D0406B897C898D899E890E9451
:1022B000D9309B01AC01C701B6010E94192E6B01F8
:1022C0007C016D962CAD3DAD4EAD5FAD6D976BA1B4
:1022D0007CA18DA19EA10E94D9309B01AC01C701B8
:1022E000B6010E94192E6B017C01CB57DF4F28816C
:1022F00039814A815B81C558D0406F857889898949
:102300009A890E94D9309B01AC01C701B6010E9495
:10231000192E6B017C012F962CAD3DAD4EAD5FADFE
:102320002F976BA17CA18DA19EA10E94D9309B010A
:10233000AC01C701B6010E94182E6B017C01AD965D
:102340002CAD3DAD4EAD5FADAD976F89788D898D6C
:102350009A8D0E94D9302F85388949895A890E94DF
:10236000D9309B01AC01C701B6010E94192E6B0147
:102370007C012FA538A949A95AA96BA17CA18DA1DF
:102380009EA10E94D9309B01AC01C701B6010E94F9
:10239000182E6B017C01A1962CAD3DAD4EAD5FAD0D
:1023A000A1976BA17CA18DA19EA10E94D9309B0118
:1023B000AC01C701B6010E94192E6B017C01AC0172
:1023C0009B010E94192ECF57DF4F688379838A8340
:1023D0009B83C158D04069962CAD3DAD4EAD5FADED
:1023E0006997CA01B9010E94192E4B015C012FA106
:1023F00038A549A55AA5C301B2010E94D9309B0155
:10240000AC01C501B4010E94182E4B015C01ED9690
:102410002CAD3DAD4EAD5FADED97C856DF4F688139
:1024200079818A819B81C859D0400E94D9309B0113
:10243000AC01C501B4010E94182E6D966CAF7DAF42
:102440008EAF9FAF6D97AD962CAD3DAD4EAD5FADF0
:10245000AD976F85788989899A890E94D9304B0117
:102460005C01A5962CAD3DAD4EAD5FADA597CA0103
:10247000B9010E94192E9B01AC01C501B4010E9453
:10248000192E4B015C01ED962CAD3DAD4EAD5FAD0F
:10249000ED97E5966CAD7DAD8EAD9FADE5970E9455
:1024A000D9309B01AC01C501B4010E94182EE19600
:1024B0006CAF7DAF8EAF9FAFE197A7019601C301CF
:1024C000B2010E94D930CB57DF4F688379838A836A
:1024D0009B83C558D0402FA538A949A95AA960E0C7
:1024E00070E080E09FE30E94182EA1962CAD3DADD8
:1024F0004EAD5FADA1970E94182E2F8D38A149A136
:102500005AA10E94D9304B015C01C056DF4F28818F
:1025100039814A815B81C05AD04069966CAD7DADEE
:102520008EAD9FAD69970E94182EA70196010E945B
:10253000D9309B01AC01C501B4010E94192E2BA515
:102540003CA54DA55EA50E94182E6BA77CA78DA764
:102550009EA72F8D38A149A15AA15058A1962CAF02
:102560003DAF4EAF5FAFA197A70196016B897C8904
:102570008D899E890E94D930CC55DF4F688379833D
:102580008A839B83C45AD040A30192016B897C89C2
:102590008D899E890E94D9304B015C012F85388935
:1025A00049895A896B8D7C8D8D8D9E8D0E94D93085
:1025B0009B01AC01C501B4010E94182E2F8D38A1DA
:1025C00049A15AA10E94D9304B015C012F8538895D
:1025D00049895A89C301B2010E94D930A5962CAD10
:1025E0003DAD4EAD5FADA5970E94192EA701960196
:1025F0000E94D9309B01AC01C501B4010E94192E83
:102600002F89388D498D5A8D0E94182E6F8B788FA7
:10261000898F9A8F2F8D38A149A15AA1C301B20188
:102620000E94D930A5966CAF7DAF8EAF9FAFA597B6
:102630002F962CAD3DAD4EAD5FAD2F9760E070E0B5
:1026400080E09FE30E94182E2FA538A949A95AA916
:102650000E94182EA70196010E94D9304B015C01FF
:1026600069962CAD3DAD4EAD5FAD6997C056DF4F5D
:10267000688179818A819B81C05AD0400E94192E3D
:102680002F8D38A149A15AA10E94D9309B01AC01DC
:10269000C501B4010E94192E2BA13CA14DA15EA140
:1026A0000E94182E6BA37CA38DA39EA3AD966CAD48
:1026B0007DAD8EAD9FADAD9790586D962CAD3DAD77
:1026C0004EAD5FAD6D970E94D9304B015C01E19634
:1026D0002CAD3DAD4EAD5FADE197A9966CAD7DAD36
:1026E0008EAD9FADA9970E94D9309B01AC01C50169
:1026F000B4010E94192E4B015C012BA53CA54DA5F0
:102700005EA5CB57DF4F688179818A819B81C5584F
:10271000D0400E94D9309B01AC01C501B4010E9498
:10272000182E4B015C01A1962CAD3DAD4EAD5FADB9
:10273000A1976F85788989899A890E94D930CC556B
:10274000DF4F288139814A815B81C45AD0400E9481
:10275000192E2F89388D498D5A8D0E94D9309B01B1
:10276000AC01C501B4010E94192E4B015C012BA1E3
:102770003CA14DA15EA1A5966CAD7DAD8EAD9FAD8A
:10278000A5970E94D9309B01AC01C501B4010E94FC
:10279000192E69966CAF7DAF8EAF9FAF69972F965C
:1027A0002CAD3DAD4EAD5FAD2F97CA01B9010E9472
:1027B000192E9B01AC0160E070E080E89FE30E946D
:1027C000182E4B015C012FA538A949A95AA9CA01A5
:1027D000B9010E94192E9B01AC01C501B4010E94F0
:1027E000182E4B015C01ED962CAD3DAD4EAD5FADAD
:1027F000ED97E9966CAD7DAD8EAD9FADE9970E94EA
:10280000D9309B01AC01C501B4010E94182E2F964E
:102810006CAF7DAF8EAF9FAF2F97A70196016F85ED
:10282000788989899A890E94D9304B015C01A70176
:1028300096016B8D7C8D8D8D9E8D0E94D930ED968D
:102840006CAF7DAF8EAF9FAFED976D962CAD3DAD6C
:102850004EAD5FAD6D97C456DF4F688179818A8137
:102860009B81CC59D0400E94D9306B017C01E1960C
:102870002CAD3DAD4EAD5FADE1976FA178A589A5BB
:102880009AA50E94D9309B01AC01C701B6010E94F4
:10289000192E6B017C0120E030E040E850E46B89A8
:1028A0007C898D899E890E94D9302F962CAD3DADB3
:1028B0004EAD5FAD2F970E94D9309B01AC01C7018F
:1028C000B6010E94182E6B017C01A50194016BA535
:1028D0007CA58DA59EA50E94D9309B01AC01C701A6
:1028E000B6010E94192E6B017C01ED962CAD3DAD19
:1028F0004EAD5FADED97A5966CAD7DAD8EAD9FAD48
:10290000A5970E94192E2F89388D498D5A8D0E94C6
:10291000D9309B01AC01C701B6010E94192E6B0191
:102920007C012F8D38A149A15AA16F8578898989A9
:102930009A890E94D9306FA778AB89AB9AABCF57F1
:10294000DF4F288139814A815B81C158D0406B8932
:102950007C898D899E890E94D9309B01AC016FA52D
:1029600078A989A99AA90E94182E2BA13CA14DA152
:102970005EA10E94D9309B01AC01C701B6010E9443
:10298000192E6FA778AB89AB9AAB2F8D38A149A1CF
:102990005AA1CA01B9010E94192E6B017C01F7FAF4
:1029A000F094F7F8F0942F8D38A149A15AA16B89C2
:1029B0007C898D899E890E94D930A5966CAF7DAFA8
:1029C0008EAF9FAFA5976FA178A589A59AA59058BE
:1029D0006D962CAD3DAD4EAD5FAD6D970E94D9307B
:1029E0006FA378A789A79AA7E1962CAD3DAD4EAD10
:1029F0005FADE197C456DF4F688179818A819B8101
:102A0000CC59D0400E94D9309B01AC016FA178A570
:102A100089A59AA50E94192E6FA378A789A79AA7BE
:102A200020E030E040E850E4C301B2010E94D93018
:102A30002F962CAD3DAD4EAD5FAD2F970E94D93096
:102A40009B01AC016FA178A589A59AA50E94182EBB
:102A50006FA378A789A79AA7A7019601C301B2011E
:102A60000E94D930ED962CAD3DAD4EAD5FADED97EA
:102A70000E94182E2BA53CA54DA55EA50E94D9301D
:102A80009B01AC016FA178A589A59AA50E94192E7A
:102A90006FA378A789A79AA7A5962CAD3DAD4EAD9B
:102AA0005FADA597C501B4010E94192E2F89388DFD
:102AB000498D5A8D0E94D9309B01AC016FA178A538
:102AC00089A59AA50E94192E4B015C012F8D38A172
:102AD00049A15AA16B8D7C8D8D8D9E8D0E94D93020
:102AE0006F8F78A389A39AA3CF57DF4F28813981AD
:102AF0004A815B81C158D040C301B2010E94D930E4
:102B00009B01AC016F8D78A189A19AA10E94182E1A
:102B10002BA13CA14DA15EA10E94D9309B01AC012B
:102B2000C501B4010E94192E6FA378A789A79AA79F
:102B30006D962CAD3DAD4EAD5FAD6D97A9966CAD6C
:102B40007DAD8EAD9FADA9970E94D9304B015C0140
:102B5000E1962CAD3DAD4EAD5FADE197AD966CAD60
:102B60007DAD8EAD9FADAD970E94D9309B01AC017C
:102B7000C501B4010E94192E4B015C01A701960109
:102B80006F85788989899A890E94D930CC55DF4F21
:102B9000288139814A815B81C45AD0400E94192E14
:102BA0002BA53CA54DA55EA50E94D9309B01AC018B
:102BB000C501B4010E94192E6B017C01A1962CADB8
:102BC0003DAD4EAD5FADA1976B8D7C8D8D8D9E8D96
:102BD0000E94D930CB57DF4F288139814A815B81F0
:102BE000C558D0400E94192E2F89388D498D5A8D95
:102BF0000E94D9309B01AC01C701B6010E94192E79
:102C00006B017C01A5962CAD3DAD4EAD5FADA5979A
:102C10006BA17CA18DA19EA10E94D9309B01AC012A
:102C2000C701B6010E94192E6F8B788F898F9A8FFA
:102C300069962CAD3DAD4EAD5FAD6997CA01B90146
:102C40000E94D9306B017C012FA538A949A95AA946
:102C5000CA01B9010E94D9309B01AC01C701B6017C
:102C60000E94192E6B017C012FA138A549A55AA5F8
:102C7000CA01B9010E94D9309B01AC01C701B6015C
:102C80000E94192E6B017C012F89388D498D5A8D38
:102C9000CA01B9010E94D9309B01AC01C701B6013C
:102CA0000E94192E0E944C319B01AC0160E070E043
:102CB00080E89FE30E94172F6F8F78A389A39AA3C0
:102CC00080900B0590900C05A0900D05B0900E051E
:102CD0006B897C898D899E899058212F302F432DB7
:102CE000522D0E94D9306B017C01A30192016BAD82
:102CF0007FA98FAD24969FAD24970E94D9309B0168
:102D0000AC01C701B6010E94182E6B017C012F8512
:102D1000388949895A8928966FAD289760967FAD82
:102D2000609764968FAD649765969FAD65970E9496
:102D3000D9309B01AC01C701B6010E94182E20E0DA
:102D400030E040E05FE30E94D9306BA37CA38DA309
:102D50009EA32B8D3C8D4D8D5E8D612F702F832D0D
:102D6000922D0E94D9306B017C01A301920128961B
:102D70006FAD289760967FAD609764968FAD64972E
:102D800065969FAD65970E94D9309B01AC01C70144
:102D9000B6010E94192E6B017C012F853889498963
:102DA0005A896BAD7FA98FAD24969FAD24970E9461
:102DB000D9309B01AC01C701B6010E94182E20E05A
:102DC00030E040E05FE30E94D9306BA77CA78DA77D
:102DD0009EA72B8D3C8D4D8D5E8D6BAD7FA98FADEC
:102DE00024969FAD24970E94D9306B017C012B89DA
:102DF0003C894D895E8928966FAD289760967FAD96
:102E0000609764968FAD649765969FAD65970E94B5
:102E1000D9309B01AC01C701B6010E94182E6B018D
:102E20007C012F85388949895A89612F702F832D1C
:102E3000922D0E94D9309B01AC01C701B6010E94BE
:102E4000192E20E030E040E05FE30E94D9302F9659
:102E50006CAF7DAF8EAF9FAF2F972B8D3C8D4D8D7F
:102E60005E8D28966FAD289760967FAD60976496CB
:102E70008FAD649765969FAD65970E94D9306B01C1
:102E80007C012B893C894D895E896BAD7FA98FAD13
:102E900024969FAD24970E94D9309B01AC01C701B5
:102EA000B6010E94192E6B017C01A3019201612FD2
:102EB000702F832D922D0E94D9309B01AC01C70148
:102EC000B6010E94182E20E030E040E05FE30E944F
:102ED000D9306B017C012F8D38A149A15AA1699687
:102EE0006CAD7DAD8EAD9FAD69970E94D930A501C7
:102EF00094010E94D9309B01AC016BA17CA18DA1F2
:102F00009EA10E94182E2BA93CA94DA95EA90E9442
:102F1000D9302B8D3C8D4D8D5E8D0E94192E6B8F7F
:102F20007C8F8D8F9E8F2F8D38A149A15AA16FA5BF
:102F300078A989A99AA90E94D930A50194010E9473
:102F4000D9309B01AC016BA57CA58DA59EA50E94E7
:102F5000182E2BA93CA94DA95EA90E94D9302B8916
:102F60003C894D895E890E94192E6B8B7C8B8D8BE1
:102F70009E8B2F8D38A149A15AA16FA178A589A553
:102F80009AA50E94D930A50194010E94D9309B01D5
:102F9000AC012F966CAD7DAD8EAD9FAD2F970E948D
:102FA000182E2BA93CA94DA95EA90E94D930A301D6
:102FB00092010E94192E2B013C012F8D38A149A1AD
:102FC0005AA16F89788D898D9A8D0E94D930A5017B
:102FD00094010E94D9309B01AC01C701B6010E9447
:102FE000182E2BA93CA94DA95EA90E94D9302F8586
:102FF000388949895A890E94192E4B015C012B8D11
:103000003C8D4D8D5E8DCA01B9010E94D9306B0196
:103010007C012B893C894D895E89CA01B9010E94D6
:10302000D9309B01AC01C701B6010E94192E6B017A
:103030007C01A3019201C301B2010E94D9309B011E
:10304000AC01C701B6010E94192E6B017C01A501DC
:103050009401C501B4010E94D9309B01AC01C701A4
:10306000B6010E94192E0E944C319B01AC0160E018
:1030700070E080E89FE30E94172F6B017C01AC0198
:103080009B016B8D7C8D8D8D9E8D0E94D9306093C0
:10309000DB047093DC048093DD049093DE04A701CD
:1030A00096016B897C898D899E890E94D9306093B5
:1030B000DF047093E0048093E1049093E204A7019D
:1030C0009601C301B2010E94D9306093E30470936A
:1030D000E4048093E5049093E604A7019601C501FA
:1030E000B4010E94D9306093E7047093E8048093A0
:1030F000E9049093EA04CA56DF4F28813981C65902
:10310000D0402F5F3F4FCA56DF4F39832883C659BF
:10311000D0400C945E0CC358DF4F288139814A811E
:103120005B81CD57D040CA01B9010E94D9306B01F3
:103130007C01E5962CAD3DAD4EAD5FADE597CA0186
:10314000B9010E94D9309B01AC01C701B6010E94B0
:10315000192E6B017C01E9962CAD3DAD4EAD5FADF6
:10316000E997CA01B9010E94D9309B01AC01C7019E
:10317000B6010E94192E6B017C0120E030E0A9010C
:103180000E94CC3018160CF058C3C701B6010E943B
:103190004C319B01AC0160E070E080E89FE30E944D
:1031A000172F6B017C01AC019B01C856DF4F688172
:1031B00079818A819B81C859D0400E94D9306BA700
:1031C0007CA78DA79EA7A7019601E5966CAD7DAD66
:1031D0008EAD9FADE5970E94D9302B013C01A70130
:1031E0009601E9966CAD7DAD8EAD9FADE9970E94DD
:1031F000D9304B015C012B893C894D895E896B8DEF
:103200007C8D8D8D9E8D0E94D9306B017C012F8D20
:1032100038A149A15AA16F85788989899A890E9424
:10322000D9309B01AC01C701B6010E94182E6FA7CF
:1032300078AB89AB9AAB2F85388949895A896B8DD0
:103240007C8D8D8D9E8D0E94D9306B017C012F8DE0
:1032500038A149A15AA16B897C898D899E890E94D8
:10326000D9309B01AC01C701B6010E94192E6FA392
:1032700078A789A79AA72F85388949895A89CA01C9
:10328000B9010E94D93020E030E040E05FE30E94C5
:10329000182E6B017C012B893C894D895E89CA01FE
:1032A000B9010E94D9309B01AC01C701B6010E944F
:1032B000192E6B017C01AC019B01C301B2010E947C
:1032C000D9306F8B788F898F9A8F2FA138A549A518
:1032D0005AA5C501B4010E94D9309B01AC016F8988
:1032E000788D898D9A8D0E94182E6F8B788F898F9B
:1032F0009A8F2FA538A949A95AA9C501B4010E94DE
:10330000D9304B015C01A70196016BA57CA58DA569
:103310009EA50E94D9309B01AC01C501B4010E9459
:10332000182E6BA37CA38DA39EA32FA138A549A51E
:103330005AA56BA57CA58DA59EA50E94D9306B01D1
:103340007C012FA538A949A95AA9C301B2010E943D
:10335000D9309B01AC01C701B6010E94182E6BA7A2
:103360007CA78DA79EA7C0901705D0901805E09068
:103370001905F0901A0520E030E0A901C701B60157
:103380000E94CC3018160CF03AC2A70196016F8942
:10339000788D898D9A8D0E94D9302BA93CA94DA991
:1033A0005EA90E94D93020911C0330911D034091E9
:1033B0001E0350911F030E94192E2B013C014092C5
:1033C0001C0350921D0360921E0370921F03A701FD
:1033D00096016BA17CA18DA19EA10E94D9302BA941
:1033E0003CA94DA95EA90E94D930209118033091C3
:1033F000190340911A0350911B030E94192E4B018F
:103400005C018092180390921903A0921A03B09263
:103410001B03A70196016BA57CA58DA59EA50E9407
:10342000D9302BA93CA94DA95EA90E94D930209181
:1034300014033091150340911603509117030E9415
:10344000192E6B017C01C0921403D0921503E092F7
:103450001603F0921703A3019201612F702F832DA1
:10346000922D0E94192E3B018FA7492EA501940190
:103470006BAD7FA98FAD24969FAD24970E94192E26
:103480004B015C01A701960128966FAD28976096C5
:103490007FAD609764968FAD649765969FAD659795
:1034A0000E94192E6FA32C967FAF2C97A6968FAFF4
:1034B000A697592EC0901305D0901405E0901505DD
:1034C000F0901605A70196016F89788D898D9A8DE8
:1034D0000E94D93093014FA5542D0E94192E6F8B55
:1034E0007FA7AA968FAFAA9766969FAF6697A70108
:1034F00096016BA17CA18DA19EA10E94D93094015F
:10350000A5010E94192E6BA36E967FAF6E97482E71
:103510006A969FAF6A97A70196016BA57CA58DA5BA
:103520009EA50E94D9302FA12C963FAD2C97A69630
:103530004FADA697552D0E94192E562E672E782E28
:103540009BA720E030E040E05FE36BA97CA98DA958
:103550009EA90E94D9304B015C0180921D0590927A
:103560001E05A0921F05B09220052F893FA5AA969F
:103570004FADAA9766965FAD66970E94D9306BAB48
:103580007CAB8DAB9EAB2BA16E963FAD6E97442D61
:103590006A965FAD6A97C501B4010E94D9306B018C
:1035A0007C01252D362D472D5BA5C501B4010E9458
:1035B000D9304B015C016B8D7C8D8D8D9E8D90582B
:1035C0002BA93CA94DA95EA90E94D9302B013C0131
:1035D0002F8D38A149A15AA1C701B6010E94D93047
:1035E0009B01AC01C301B2010E94182E2B013C01CA
:1035F0002B893C894D895E89C501B4010E94D9306F
:103600009B01AC01C301B2010E94182E2F8538899D
:1036100049895A890E94192E6F8B788F898F9A8FCA
:103620002F85388949895A896BA97CA98DA99EA9BA
:103630000E94D9302B013C012F8D38A149A15AA1FC
:10364000C501B4010E94D9309B01AC01C301B20194
:103650000E94192E2B013C012B893C894D895E89E2
:10366000C701B6010E94D9309B01AC01C301B20170
:103670000E94182E2B8D3C8D4D8D5E8D0E94192E33
:103680006BA37CA38DA39EA32F85388949895A8972
:10369000C701B6010E94D9302B013C012B8D3C8D16
:1036A0004D8D5E8DC501B4010E94D9309B01AC01E6
:1036B000C301B2010E94182E2B013C012B893C89C9
:1036C0004D895E896BA97CA98DA99EA90E94D930DC
:1036D0009B01AC01C301B2010E94192E2F8D38A1AC
:1036E00049A15AA10E94192E2B013C012F8538892E
:1036F00049895A89C501B4010E94D9304B015C0146
:103700002B8D3C8D4D8D5E8DC701B6010E94D93049
:103710009B01AC01C501B4010E94192E6B017C0113
:103720002F8D38A149A15AA16BA97CA98DA99EA969
:103730000E94D9309B01AC01C701B6010E94182E2E
:103740002B893C894D895E890E94192E4B015C01B1
:103750002F89388D498D5A8DCA01B9010E94D930FF
:103760006B017C012BA13CA14DA15EA1CA01B90155
:103770000E94D9309B01AC01C701B6010E94192EED
:103780006B017C01A3019201C301B2010E94D930F7
:103790009B01AC01C701B6010E94192E6B017C018F
:1037A000A5019401C501B4010E94D9309B01AC016F
:1037B000C701B6010E94192E0E944C319B01AC0139
:1037C00060E070E080E89FE30E94172F6B017C01AE
:1037D000AC019B016F89788D898D9A8D0E94D930BB
:1037E0006093DB047093DC048093DD049093DE042B
:1037F000A70196016BA17CA18DA19EA156CC289614
:103800003FAD28973FA360964FAD60972C964FAF82
:103810002C9764965FAD6497A6965FAFA697659662
:103820005FAC65978BAC9FA8AFAC2496BFAC2497D8
:10383000612E702E3FA6422C3DCE28965FAC289775
:1038400060966FAC609764967FAC649765968FAD19
:1038500065978BA79BAD9BA3AFA96E96AFAF6E97F5
:103860004FAC2496BFAD24976A96BFAF6A971F8B63
:103870000FA7AA963FAEAA9766962FAE669761CE1F
:1038800010912C0511112EC09E012F5F3F4F42E079
:1038900061E4809141040E94120869817A8176274F
:1038A0006727762770939A0460939904072E000C7B
:1038B000880B990B0E94C12F2CE53FEE46EA53E49A
:1038C0000E94172F20E030E048EA51E40E94192EB0
:1038D00060939B0470939C0480939D0490939E043A
:1038E0000C94E2098090E7049090E804A090E90429
:1038F000B090EA048091E3049091E404A091E5047F
:10390000B091E6048F87988BA98BBA8B4090DF0427
:103910005090E0046090E1047090E2042091DB0498
:103920003091DC044091DD045091DE042B8B3C8B04
:103930004D8B5E8BCA01B9010E94D9306FAB78AF55
:1039400089AF9AAFA3019201C301B2010E94D9309D
:1039500023966CAF7DAF8EAF9FAF23972F853889AD
:1039600049895A89CA01B9010E94D93027966CAF9A
:103970007DAF8EAF9FAF2797A5019401C501B4011C
:103980000E94D9302B966CAF7DAF8EAF9FAF2B9737
:103990002B893C894D895E89C301B2010E94D930CF
:1039A0006B017C012F85388949895A89C501B40189
:1039B0000E94D9309B01AC01C701B6010E94192EAB
:1039C0009B01AC010E94192E6B8F7C8F8D8F9E8F77
:1039D000A3019201C501B4010E94D9306B017C01A1
:1039E0002B893C894D895E896F85788989899A8977
:1039F0000E94D9309B01AC01C701B6010E94182E6C
:103A00009B01AC010E94192E6BAB7CAB8DAB9EABC6
:103A100023962CAD3DAD4EAD5FAD23976FA978AD2C
:103A200089AD9AAD0E94182E27962CAD3DAD4EADB6
:103A30005FAD27970E94182E2B962CAD3DAD4EAD55
:103A40005FAD2B970E94192E6BAF7CAF8DAF9EAFF1
:103A50009B01AC016B8D7C8D8D8D9E8D0E94B32E54
:103A60006B017C016BA97CA98DA99EA90E94852E62
:103A700063966CAF7DAF8EAF9FAF639723962CADEF
:103A80003DAD4EAD5FAD23976FA978AD89AD9AADD1
:103A90000E94192E27962CAD3DAD4EAD5FAD2797F8
:103AA0000E94182E2B962CAD3DAD4EAD5FAD2B97E1
:103AB0000E94182E6FAB78AF89AF9AAFA301920125
:103AC0006F85788989899A890E94D9302B013C01B8
:103AD0002B893C894D895E89C501B4010E94D9308A
:103AE0009B01AC01C301B2010E94192E9B01AC01E4
:103AF0000E94192E2FA938AD49AD5AAD0E94B32EA0
:103B00004B015C0120EE3EE245E652E4C701B601FE
:103B10000E94D9306093EB047093EC048093ED0421
:103B20009093EE0463966CAD7DAD8EAD9FAD6397C3
:103B3000905820EE3EE245E652E40E94D930609370
:103B4000EF047093F0048093F1049093F20420EE5C
:103B50003EE245E652E4C501B4010E94D93020910D
:103B600095043091960440919704509198040E94D6
:103B7000192E6B017C0120E030E044E353E40E9405
:103B8000CC3087FD11C020E030E044EB53E4C701A6
:103B9000B6010E94182E6093F3047093F40480938E
:103BA000F5049093F60412C020E030E044E353ECB7
:103BB000C701B6010E94122F87FD51C0C092F304C5
:103BC000D092F404E092F504F092F6042B8D3C8D33
:103BD0004D8D5E8D6091B7047091B8048091B904E9
:103BE0009091BA040E94192E6093F7047093F80420
:103BF0008093F9049093FA042BA93CA94DA95EA9DE
:103C00006091BB047091BC048091BD049091BE048E
:103C10000E94192E6093FB047093FC048093FD04B2
:103C20009093FE042BAD3CAD4DAD5EAD6091BF04F5
:103C30007091C0048091C1049091C2040E94182E1A
:103C40006093FF0470930005809301059093020533
:103C5000C757DF4F1883C958D0400C94E20920E0C1
:103C600030E044EB53E4C701B6010E94192E93CF14
:103C700085ED8093BC0080918E0390918F03A0917D
:103C80009003B09191030796A11DB11D23E0B69555
:103C9000A795979587952A95D1F72091BC0024FD8B
:103CA00003C010928C03089540918E0350918F03AE
:103CB0006091900370919103452B462B472B69F33C
:103CC0000097A105B10541F02AE22A95F1F700C05D
:103CD0000197A109B109E1CF80918D030C9467048C
:103CE0001F920F920FB60F9211242F933F934F9371
:103CF0005F936F937F938F939F93AF93BF93CF9374
:103D0000DF93EF93FF938091E902C091EA02D0E044
:103D100087FF24C010928500109284008091E902F0
:103D20008F5F8093E9028091E902082E000C990BC5
:103D30008C179D0724F48091E9028C30C4F18091A6
:103D4000840090918500049680349C4908F47AC0E0
:103D50008091840090918500049676C08091E9025C
:103D6000082E000C990B8C179D07C4F6E091E90210
:103D70008E2FEE0F990BFC01EE0FFF1FE80FF91FBE
:103D8000E551FD4F808186FFC9CFE091E9028E2F7A
:103D9000EE0F990BFC01EE0FFF1FE80FF91FE55125
:103DA000FD4F808160E08F730E94FD03B7CF2091AB
:103DB000840030918500E091E9028E2FEE0F990B7F
:103DC000FC01EE0FFF1FE80FF91FE551FD4F818148
:103DD0009281820F931F9093890080938800E091D5
:103DE000E9028E2FEE0F990BFC01EE0FFF1FE80F7B
:103DF000F91FE551FD4F808186FF11C0E091E90276
:103E00008E2FEE0F990BFC01EE0FFF1FE80FF91F2D
:103E1000E551FD4F808161E08F730E94FD03FF91AA
:103E2000EF91DF91CF91BF91AF919F918F917F9152
:103E30006F915F914F913F912F910F900FBE0F9017
:103E40001F90189580E49CE99093890080938800E6
:103E50008FEF8093E902E3CF1F920F920FB60F927C
:103E600011242F933F934F935F936F937F938F937F
:103E70009F93AF93BF93EF93FF938091B900887F97
:103E8000803609F44AC0F0F5883209F4A7C018F565
:103E9000803109F49BC0B8F4882309F4F9C0883054
:103EA00009F494C0FF91EF91BF91AF919F918F91D1
:103EB0007F916F915F914F913F912F910F900FBE26
:103EC0000F901F901895883109F488C0803251F7FF
:103ED00080936A0314C0803409F49DC040F4803399
:103EE000B9F38833F9F680936A0385ECB0C0803566
:103EF00009F485C0883509F496C0883499F60E9483
:103F0000381ED0CF883909F48CC038F5883729F0AD
:103F100050F4883611F0803729F683E080938C03C3
:103F20001092E80257C0883809F47BC0803919F034
:103F3000803809F0B7CF8091E802803208F071C074
:103F4000E091E80281E08E0F8093E8028091BB004F
:103F5000F0E0E853FD4F80833DC0803B39F0E0F452
:103F6000803A09F479C0883A09F09CCF84E08093C4
:103F70008C031092C5021092C402E091C202F0912B
:103F8000C30209958091C40281110FC081E0809322
:103F9000C4021092A20209C0803C09F4A6CF883C5A
:103FA00009F4A3CF883B09F07DCFE091C50281E001
:103FB0008E0F8093C502F0E0EE55FD4F8081809317
:103FC000BB009091C5028091C40229C08091670313
:103FD0008093BB0085EC8093BC0064CF9091690313
:103FE00080916803981758F5E091690381E08E0F7E
:103FF00080936903F0E0EA5BFC4F8081E9CFE091B8
:10400000690381E08E0F809369038091BB00F0E02B
:10401000EA5BFC4F80839091690380916803981755
:10402000C8F285E8D8CFE091690381E08E0F8093D4
:1040300069038091BB00F0E0EA5BFC4F80838091D4
:104040006B0381115CCF81E08093660384EA8093E7
:10405000BC0010928C0326CF85EC8093BC0010929C
:104060008C038091E802803230F4E091E802F0E0C5
:10407000E853FD4F10826091E80270E0E091C602C3
:10408000F091C70288EC92E009951092E8020ACFFD
:1040900010926A0334CF1F920F920FB60F92112421
:1040A0002F933F934F935F936F937F938F939F9340
:1040B000AF93BF93CF93EF93FF9399B18091130385
:1040C000C091A002C923282F2095C22320919F02CE
:1040D0008223292F20958223C82B90931303C5FF99
:1040E0004BC00E948804609377027093780280939B
:1040F000790290937A024091770250917802609110
:10410000790270917A028091730290917402A09169
:104110007502B091760284179507A607B70764F574
:104120008091770290917802A0917902B0917A0201
:104130004091730250917402609175027091760201
:10414000841B950BA60BB70B80936F0290937002A4
:10415000A0937102B09372028091770290917802DD
:10416000A0917902B0917A028093730290937402C5
:10417000A0937502B0937602C2FF4BC00E948804E0
:1041800060938302709384028093850290938602E9
:104190004091830250918402609185027091860261
:1041A00080917F0290918002A0918102B091820261
:1041B00084179507A607B70764F58091830290914D
:1041C0008402A0918502B091860240917F025091B5
:1041D00080026091810270918202841B950BA60B74
:1041E000B70B80937B0290937C02A0937D02B093E7
:1041F0007E028091830290918402A0918502B09109
:10420000860280937F0290938002A0938102B093F4
:104210008202C3FF4BC00E94880460938F02709398
:104220009002809391029093920240918F0250915C
:104230009002609191027091920280918B02909114
:104240008C02A0918D02B0918E0284179507A6076B
:10425000B70764F580918F0290919002A09191022E
:10426000B091920240918B0250918C0260918D022C
:1042700070918E02841B950BA60BB70B809387025F
:1042800090938802A0938902B0938A0280918F0252
:1042900090919002A0919102B091920280938B0232
:1042A00090938C02A0938D02B0938E02C4FF4BC0FA
:1042B0000E94880460939B0270939C0280939D02ED
:1042C00090939E0240919B0250919C0260919D02AE
:1042D00070919E028091970290919802A09199020C
:1042E000B0919A0284179507A607B70764F58091E5
:1042F0009B0290919C02A0919D02B0919E024091E0
:104300009702509198026091990270919A02841BD1
:10431000950BA60BB70B8093930290939402A093F6
:104320009502B093960280919B0290919C02A0917D
:104330009D02B0919E028093970290939802A09361
:104340009902B0939A02FF91EF91CF91BF91AF91F3
:104350009F918F917F916F915F914F913F912F919D
:104360000F900FBE0F901F9018951F920F920FB6CF
:104370000F9211242F933F938F939F93AF93BF93EB
:1043800080910F0390911003A0911103B09112033B
:1043900030916A0223E0230F2D3758F50196A11DB5
:1043A000B11D20936A0280930F0390931003A09392
:1043B0001103B093120380916B0290916C02A09153
:1043C0006D02B0916E020196A11DB11D80936B022A
:1043D00090936C02A0936D02B0936E02BF91AF9167
:1043E0009F918F913F912F910F900FBE0F901F9033
:1043F000189526E8230F0296A11DB11DD2CF1F925A
:104400000F920FB60F9211242F933F934F935F9308
:104410006F937F938F939F93AF93BF93EF93FF938C
:104420008EE993E00E945A03FF91EF91BF91AF9103
:104430009F918F917F916F915F914F913F912F91BC
:104440000F900FBE0F901F9018951F920F920FB6EE
:104450000F9211242F938F939F93EF93FF93E091EB
:10446000AE03F091AF038081E091B403F091B50306
:1044700082FD1BC090818091B7038F5F8F73209165
:10448000B803821741F0E091B703F0E0E256FC4F29
:10449000958F8093B703FF91EF919F918F912F910B
:1044A0000F900FBE0F901F9018958081F4CF99B197
:1044B00090931303EDE6F0E09081892B8083E8E68A
:1044C000F0E08081846080830895CF93DF9390E053
:1044D000FC01E650FF4F24918A519F4FFC018491CB
:1044E0008823D1F090E0880F991FFC01EE52FF4F16
:1044F000A591B491FC01E452FF4FC591D491623073
:1045000071F49FB7F8943C91822F809583238C930C
:10451000E8812E2B28839FBFDF91CF9108958FB71D
:10452000F894EC912E2B2C938FBFF6CF1F93CF9343
:10453000DF93EC01162F88818C3008F04EC061E0CB
:10454000812F0E9465228881282F30E0F901EE0F2B
:10455000FF1FE20FF31FE551FD4F1F736081607C69
:10456000612B608319821A822CE0622F0E94F22D47
:10457000829FB001112430E020E0AB01420F531FB5
:10458000FA01EE0FFF1FE40FF51FE551FD4F90817B
:1045900096FD16C02F5F3F4F2C30310571F781110A
:1045A0000FC01092800082E08093810010928500FD
:1045B00010928400B19A80916F00826080936F00A6
:1045C000E8818E2F90E0FC01EE0FFF1FE80FF91F2E
:1045D000E551FD4F8081806480838881DF91CF9198
:1045E0001F910895FC019091EA029C3098F481E0BB
:1045F000890F8093EA029083892F90E0FC01EE0FEF
:10460000FF1FE80FF91FE551FD4F88EB9BE09283F8
:10461000818308958FEF80830895CF92DF92EF9288
:10462000FF920F931F93CF93DF93E2E9F3E013829E
:10463000128288EE93E0A0E0B0E084839583A683A5
:10464000B7832CE331E031832083EEE9F3E013827A
:10465000128284839583A683B7838EE491E091834D
:10466000808385EC90E09587848784EC90E0978741
:10467000868780EC90E0918B808B81EC90E0938B2F
:10468000828B82EC90E0958B848B86EC90E0978B0C
:10469000868B118E128E138E148E88E190E00E940C
:1046A000AA31EC0180E090E0ACE0B2E48883998329
:1046B000AA83BB83C12CD12C80E8E82E8FE3F82E8F
:1046C000C886D986EA86FB86CC82DD82EE82FF82AE
:1046D000CE010E941E020BE314E0D801CD93DC93BF
:1046E00088E190E00E94AA31EC0180E090E0A8EB24
:1046F000B1E488839983AA83BB83C886D986EA8676
:10470000FB86CC82DD82EE82FF82CE010E941E02F9
:10471000F801D383C28388E190E00E94AA31EC01C2
:1047200080E090E0A0E9B1E488839983AA83BB8309
:10473000C886D986EA86FB86CC82DD82EE82FF823D
:10474000CE010E941E02D8011596DC93CE931497D9
:10475000E1E4F4E088E680831282118214821382FD
:1047600081E090E09683858324E0278323E02087FF
:104770001186C1E0C28713861486158616861786B1
:10478000108A118A128A138A148A158A168A178A3D
:10479000108E118E128E138E148E158E168E178E0D
:1047A00010A211A212A213A214A215A216A217A25D
:1047B00010A611A612A613A614A615A616A617A62D
:1047C00010AA11AA12AA13AA14AA15AA16AA17AAFD
:1047D00010AE11AE12AE13AE14AE15AE16AE17AECD
:1047E0001092810410928204109283041092840427
:1047F0001092850410928604109287041092880407
:104800002CE0E6E0F1E0A9E8B4E001900D922A95F1
:10481000E1F746EF58E260E071EC40939504509365
:104820009604609397047093980410929A041092DF
:10483000990410929B0410929C0410929D04109273
:104840009E04EFE9F4E028E1DF011D922A95E9F7E3
:104850001092B7041092B8041092B9041092BA04DE
:104860001092BB041092BC041092BD041092BE04BE
:104870001092BF041092C0041092C1041092C2049E
:104880001092C3041092C4041092C5041092C6047E
:104890001092C7041092C8041092C9041092CA045E
:1048A0001092CB041092CC041092CD041092CE043E
:1048B0001092CF041092D0041092D1041092D2041E
:1048C0001092D3041092D4041092D5041092D604FE
:1048D0001092D7041092D8041092D9041092DA04DE
:1048E000C092DB04D092DC04E092DD04F092DE049E
:1048F0001092DF041092E0041092E1041092E2049E
:104900001092E3041092E4041092E5041092E6047D
:104910001092E7041092E8041092E9041092EA045D
:104920001092EB041092EC041092ED041092EE043D
:104930001092EF041092F0041092F1041092F2041D
:104940001092F3041092F4041092F5041092F604FD
:104950001092F7041092F8041092F9041092FA04DD
:104960001092FB041092FC041092FD041092FE04BD
:104970001092FF041092000510920105109202059A
:1049800043EC58EB62E37FE3409303055093040547
:1049900060930505709306051092070510920805AF
:1049A0001092090510920A054EE057EC6AE17FE388
:1049B00040930B0550930C0560930D0570930E0505
:1049C00010920F0510921005109211051092120509
:1049D00040E050E060EF71E44093130550931405FC
:1049E000609315057093160510921705109218051F
:1049F0001092190510921A0590931C0580931B05BF
:104A000010921D0510921E0510921F051092200590
:104A10001092210510922205109223051092240570
:104A20001092250510922605109227051092280550
:104A300090932A058093290510922B05C0932C058D
:104A400010922D0581E395E00E94F2221092350527
:104A500010923405109237051092360588E395E0E0
:104A60000E94F22210923C0510923B0510923E05E6
:104A700010923D058FE395E00E94F22210924305CB
:104A80001092420510924505109244051092470578
:104A900010924605C093480510924E0510924D05A0
:104AA0001092540510925305DF91CF911F910F91F1
:104AB000FF90EF90DF90CF900895CF93DF93CDB725
:104AC000DEB764970FB6F894DEBF0FBECDBF789403
:104AD00084B5826084BD84B5816084BD85B5826003
:104AE00085BD85B5816085BD80916E0081608093B4
:104AF0006E0010928100809181008260809381001D
:104B0000809181008160809381008091800081602C
:104B1000809380008091B10084608093B100809187
:104B2000B00081608093B00080917A0084608093AF
:104B30007A0080917A00826080937A0080917A0076
:104B4000816080937A0080917A00806880937A00F7
:104B50001092C1001092210310922003109223039F
:104B6000109245030E94490485E992E09093C302A4
:104B70008093C20286E992E09093C7028093C602B6
:104B80001092B8008BE08E010F5F1F4FF801282FA5
:104B900011922A95E9F798E69093410421E030E0DC
:104BA0003E832D8394E09F8393E0988791E09A87DA
:104BB000F801A2E4B4E001900D928A95E1F782E950
:104BC00093E090932F0580932E0565E788E60E9479
:104BD0006408F82E80912D05882379F08DE791E007
:104BE0000E94CE066F2D70E090E080E040E10E94D0
:104BF000DB068CE591E00E94CE0680E98F0D8230C5
:104C000018F033E7F31247C20E94DA0860E08CE044
:104C10000E946408F82E80912D05882379F081E99F
:104C200091E00E94CE066F2D70E090E080E040E1C0
:104C30000E94DB068CE591E00E94CE0648E4F41267
:104C400019C240E06AE08CE00E94A9086AE070E0C6
:104C500080E090E00E946C064FE06AE08CE00E94E9
:104C6000A9086AE070E080E090E00E946C069E0176
:104C7000235F3F4F43E060E18CE00E9412086D85A6
:104C80006058770B072E000C880B990B0E94C12FE0
:104C900020E030E040E85BE30E94D93020E030E0E3
:104CA00040E85FE30E94192E6093710470937204D0
:104CB00080937304909374046E856058770B072E6D
:104CC000000C880B990B0E94C12F20E030E040E8D7
:104CD0005BE30E94D93020E030E040E85FE30E94CF
:104CE000192E6093750470937604809377049093E3
:104CF00078046F856058770B072E000C880B990B92
:104D00000E94C12F20E030E040E85BE30E94D930F0
:104D100020E030E040E85FE30E94192E60937904C0
:104D200070937A0480937B0490937C0440E06AE063
:104D30008CE00E94A9086AE070E080E090E00E94A8
:104D40006C06409146044295407F46606AE08CE0E4
:104D50000E94A9086AE070E080E090E00E946C0682
:104D600080912D05882371F184EA91E00E941F074C
:104D700085EC91E00E94CE066091710470917204FE
:104D800080917304909174040E942D0786EE91E047
:104D90000E94CE066091750470917604809177042C
:104DA000909178040E942D0787E092E00E94CE0641
:104DB0006091790470917A0480917B0490917C04D5
:104DC0000E942D0781E080932B0510922D0540E86D
:104DD0006BE6809141040E94A90864E670E080E0DF
:104DE00090E00E946C0641E06BE6809141040E94D5
:104DF000A90840E06CE6809141040E94A90868EC93
:104E000070E080E090E00E946C0640E068E38091F2
:104E100041040E94A90840E063E2809141040E949D
:104E2000A90840E06BE6809141040E94A90840E097
:104E300064E2809141040E94A90840E06AE6809102
:104E400041040E94A9084CE06AE6809141040E9456
:104E5000A9086FE070E080E090E00E946C0641E0FD
:104E60006AE1809141040E94A90840E069E18091D3
:104E700041040E94A90840E06BE1809141040E9436
:104E8000A90840E06CE1809141040E94A90840E437
:104E90006AE6809141040E94A90848E763E2809194
:104EA00041040E94A90868E270E080E090E00E945E
:104EB0006C0640E063E2809141040E94A9089801D9
:104EC00042E062E7809141040E94120889819A8140
:104ED0009827892798276CE070E00E94FE2D5B01DF
:104EE000912C812C70904104A814B90409F4DAC003
:104EF00098014CE064E7872D0E941208CB80DC808B
:104F0000DC24CD24DC24ED80FE80FE24EF24FE246E
:104F10006F80788476246724762449845A845424C4
:104F2000452454242B843C84322423243224698154
:104F30007A81762767277627072E000C880B990B36
:104F40000E94C12F2091590430915A0440915B0472
:104F500050915C040E94192E6093590470935A0476
:104F600080935B0490935C04B601DD0C880B990B75
:104F70000E94C12F9B01AC0160915D0470915E04A1
:104F800080915F04909160040E94192E60935D04EB
:104F900070935E0480935F0490936004B701FF0CEC
:104FA000880B990B0E94C12F9B01AC016091610499
:104FB0007091620480916304909164040E94192EA0
:104FC000609361047093620480936304909364041B
:104FD000B301770C880B990B0E94C12F9B01AC0188
:104FE00060916504709166048091670490916804F3
:104FF0000E94192E60936504709366048093670481
:1050000090936804B201550C880B990B0E94C12F34
:105010009B01AC016091690470916A0480916B04FA
:1050200090916C040E94192E6093690470936A0435
:1050300080936B0490936C04B101330C880B990B33
:105040000E94C12F9B01AC0160916D0470916E04B0
:1050500080916F04909170040E94192E60936D04EA
:1050600070936E0480936F04909370045FEF851AC1
:10507000950A38CF80912D05882321F088E292E0AF
:105080000E941F0710922B0568EE73E080E090E00D
:105090000E946C06F9CF80912D05882399F384E452
:1050A00092E0EECFB50190E080E00E94BF2F6B014F
:1050B0007C01AC019B016091590470915A0480916C
:1050C0005B0490915C040E94172F609359047093C5
:1050D0005A0480935B0490935C04A701960160914D
:1050E0005D0470915E0480915F04909160040E9461
:1050F000172F60935D0470935E0480935F04909318
:105100006004A7019601609161047091620480912E
:105110006304909164040E94172F4B015C01A70166
:105120009601609165047091660480916704909186
:1051300068040E94172F609365047093660480933F
:10514000670490936804A7019601609169047091C7
:105150006A0480916B0490916C040E94172F6093F5
:10516000690470936A0480936B0490936C04A701A4
:10517000960160916D0470916E0480916F0490911E
:1051800070040E94172F60936D0470936E048093D7
:105190006F049093700420E030E0A901C501B401D0
:1051A0000E94CC3020E030E040E856E418160CF0C5
:1051B000DBC1C501B4010E94182E60936104709395
:1051C000620480936304909364041C8A1B8A6E01BA
:1051D00083E1C80ED11C960142E067E7872D0E944B
:1051E00012088B899C899827892798279E878D8705
:1051F000960142E06AE7809141040E9412088B897F
:105200009C89982789279827988B8F87960142E059
:105210006DE7809141040E9412088B899C89982730
:10522000892798279A8B898B86E0E2E1F1E0D80103
:1052300001900D928A95E1F7FE013D967F01F9E517
:10524000AF2EF4E0BF2EF7018080918080FE03C076
:10525000F80111821082F501619171918191919112
:105260005F010E94892FE3E075956795EA95E1F764
:10527000C401861B970BF70191838083F80121916C
:1052800031918F012115310509F473C120953095B5
:1052900082239323F70191838083F2E0EF0EF11CC8
:1052A000EC14FD0481F6DD844E85FF84E8881989BD
:1052B0000A8967E7809141040E94A9084D2D68E79B
:1052C000809141040E94A9084E2D6AE78091410413
:1052D0000E94A9084F2D6BE7809141040E94A90804
:1052E000402F6DE7809141040E94A908412F6EE78D
:1052F000809141040E94A908609165047091660440
:1053000080916704909168040E94892F9B0177FF28
:1053100002C02D5F3F4FC90195958795959587955B
:10532000919581959109F82EE92E6091690470910B
:105330006A0480916B0490916C040E94892F9B01F8
:1053400077FF02C02D5F3F4FC901959587959595D1
:105350008795919581959109D82EC92E60916D04FC
:1053600070916E0480916F04909170040E94892F57
:105370008B0177FF02C00D5F1F4F1595079515959F
:1053800007951195019511094E2D63E18091410416
:105390000E94A9084F2D64E1809141040E94A90850
:1053A0004C2D65E1809141040E94A9084D2D66E1D4
:1053B000809141040E94A908412F67E18091410436
:1053C0000E94A908402F68E1809141040E94A90829
:1053D00064E670E080E090E00E946C060E94DA08CB
:1053E00068EE73E080E090E00E946C0669E070E097
:1053F00081E395E00E94962262E082E00E946522AD
:105400000091A00210919F0284E00E9457226AE05E
:1054100070E088E395E00E94962262E083E00E94BB
:10542000652288E00E9457226BE070E08FE395E0F0
:105430000E94962262E084E00E94652280E10E9440
:10544000572262E085E00E9465220C630093A0026F
:105450001C6310939F0280E20E94572208EE13E023
:105460000E94B90981110E94BC0001501109C1F7C5
:1054700098EEC92E93E0D92EE12CF12C28ED422E86
:1054800029E0522E612C712C80E0282E80E0382EED
:105490002FB7F89480910F0390911003A0911103FE
:1054A000B09112032FBF8093660290936702A0937E
:1054B0006802B09369021FB7F89480916F029091CF
:1054C0007002A0917102B0917202883E9340A105D2
:1054D000B1050CF474C080916F0290917002A0919C
:1054E0007102B0917202813D9740A105B1050CF0A7
:1054F00066C080916F0290917002A0917102B0918C
:105500007202893E43E09407A105B105A4F1803BF6
:1055100054E09507A105B105CCF1AC01BD014451A2
:10552000554061097109413951406105710508F023
:1055300010C180914805823009F441C080913B043C
:1055400090913C040E941E0280913D0490913E0483
:105550000E941E0280913F04909140040E941E020E
:10556000F2E0F09348052BC0C501B4010E94192E4A
:1055700024CE81608FCEB701A601481B590B6A0B60
:105580007B0B483C5105610571053CF6809148054F
:105590008330A9F080913B0490913C040E941E024C
:1055A00080913D0490913E040E941E0280913F0430
:1055B000909140040E941E0283E0809348058091F0
:1055C0007B0290917C02A0917D02B0917E02883E88
:1055D0009340A105B105CCF080917B0290917C02B3
:1055E000A0917D02B0917E02813D9740A105B10559
:1055F00064F480917B0290917C02A0917D02B09135
:105600007E029093370580933605809187029091B2
:105610008802A0918902B0918A02883E9340A10538
:10562000B105CCF08091870290918802A091890207
:10563000B0918A02813D9740A105B10564F4809143
:10564000870290918802A0918902B0918A0290937A
:105650003E0580933D058091930290919402A09124
:105660009502B0919602883E9340A105B105CCF019
:105670008091930290919402A0919502B09196022C
:10568000813D9740A105B10564F48091930290910A
:105690009402A0919502B091960290934505809353
:1056A00044051FBF0E94B90981110E94BC0080906F
:1056B000660290906702A0906802B09069028091A3
:1056C000620290916302A0916402B0916502A5010B
:1056D0009401281B390B4A0B5B0BDA01C901449773
:1056E000A105B10550F180914805823009F457C0F9
:1056F000833009F44AC10E942E01609134057091F3
:10570000350581E395E00E94370260913B05709179
:105710003C0588E395E00E94370260914205709154
:1057200043058FE395E00E943702809262029092D7
:105730006302A0926402B09265022114310409F45C
:10574000A7CE0E94E903882309F49ECE0E940000A0
:105750009BCE813D27E09207A105B1057CF08839F9
:105760009840A105B1050CF02ACF80914805813001
:1057700009F425CF31E03093480521CF20ED37E003
:1057800040E050E0281B390B4A0B5B0BDA01C901E2
:10579000883C9105A105B1050CF011CFE6CF209111
:1057A000360530913705C9018C5D954010E000E069
:1057B0004597A0F050E040E0285E33404109510990
:1057C000ACE8B0E00E94B62DA70196010E94972D8B
:1057D00089019A01065411092109310910933505EF
:1057E0000093340520913D0530913E05C9018C5D43
:1057F0009540459708F4C3C050E040E0285E334030
:1058000041095109ACE8B0E00E94B62DA70196010C
:105810000E94972D265431094109510930933C05C6
:1058200020933B052091440530914505C9018C5DCD
:105830009540459708F4A6C050E040E0285E33400C
:1058400041095109ACE8B0E00E94B62DA7019601CC
:105850000E94972D2654310941095109309343057F
:105860002093420580914F0590915005B801681B27
:10587000790B80913B0490913C040E945F019093CE
:1058800035058093340560913B0570913C0580910E
:10589000510590915205681B790B80913D049091C0
:1058A0003E040E945F0190933C0580933B0560910C
:1058B0004205709143058091530590915405681BF2
:1058C000790B80913F04909140040E945F018C010C
:1058D0002091340530913505032E000C440B550BF7
:1058E0002E56364F4F4F5F4FA8EEB3E00E94B62DB5
:1058F00024E233E140E050E00E94972D28513C4FD4
:105900004F4F5F4F309335052093340520913B0571
:1059100030913C05032E000C440B550B265B394F90
:105920004F4F5F4FA8EEB3E00E94B62D24E93CE054
:1059300040E050E00E94972D28513C4F4F4F5F4F61
:1059400030933C0520933B05012E000C220B330BBA
:10595000A901980124513B4F4F4F5F4FA8EEB3E090
:105960000E94B62DA30192010E94972D28513C4F11
:105970004F4F5F4F3093430520934205BECE30E03A
:1059800020E04CCF30E020E069CF20913605309107
:105990003705C9018C5D954010E000E04597A0F007
:1059A00050E040E0285E334041095109A8E7B0E0EB
:1059B0000E94B62DA70196010E94972D89019A0198
:1059C0000C53110921093109109335050093340551
:1059D00020913D0530913E05C9018C5D954045976C
:1059E00008F49FC050E040E0285E3340410951096F
:1059F000A8E7B0E00E94B62DA70196010E94972D5E
:105A00002C5331094109510930933C0520933B0542
:105A10002091440530914505C9018C5D954045971D
:105A200008F482C050E040E0285E3340410951094B
:105A3000ACE8B0E00E94B62DA70196010E94972D18
:105A400026543109410951093093430520934205F9
:105A500080914B0590914C05B801681B790B8091A2
:105A60003B0490913C040E945F0190933505809324
:105A7000340560913B0570913C05809149059091FA
:105A80004A05681B790B80913D0490913E040E9469
:105A90005F0190933C0580933B05609142057091B6
:105AA00043058091530590915405681B790B8091B3
:105AB0003F04909140040E945F018C0120913405C5
:105AC00030913505032E000C440B550B2C5C374FE1
:105AD0004F4F5F4FA8EEB3E00E94B62D28E630E1AD
