:100000000C9492000C94BA000C94BA000C94BA00B0
:100010000C94BA000C94551F0C94BA000C94BA00BE
:100020000C94BA000C94BA000C94BA000C947A1D8B
:100030000C94BA000C94BA000C94BA000C94BA0058
:100040000C94BF200C94BA000C942F210C9409211D
:100050000C94BA000C94BA000C94BA000C94BA0038
:100060000C94361E0C94BA00036EDB363D9A9999B7
:10007000993DABAAAA2A3E000000803F084AD73B20
:100080003BCE016E84BCBFFDC12F3D6C74319ABD67
:1000900056833DDA3D00C77F11BED9E4BB4C3E918B
:1000A0006BAAAABE000000803F072C7AA5BA6CC5D7
:1000B00090DA3B9365FC8BBC53F810FD3C56928361
:1000C0004DBD879D3AB63DCBC9BF5BBE73DA0FC944
:1000D0003F0000000000240027002A00000000006C
:1000E000250028002B000404040404040404020274
:1000F00002020202030303030303010204081020A7
:1001000040800102040810200102040810200000B1
:1001100000080002010000030407000000000000C6
:100120000000172211241FBECFEFD8E0DEBFCDBFE5
:1001300012E0A0E0B1E0E0EAFEE502C005900D9219
:10014000A437B107D9F725E0A4E7B2E001C01D92BA
:10015000AB36B207E1F710E0C2E9D0E004C0219766
:10016000FE010E94912AC139D107C9F70E94572484
:100170000C944E2F0C9400008091480590914905F5
:100180009C012C5D35402531310510F48CED95E056
:10019000909347058093460580914F0590915005B7
:1001A0009C012C5D35402531310510F48CED95E036
:1001B00090934E0580934D0580915605909157057B
:1001C0009C012C5D35402531310510F48CED95E016
:1001D000909355058093540508954F925F926F92C6
:1001E0007F928F929F92AF92BF92CF92DF92EF92C7
:1001F000FF92CF93DF9300D000D000D0CDB7DEB711
:100200009E838D837B018FB7F894209121033091D9
:100210002203409123035091240329833A834B8383
:100220005C838FBFED81FE8184899589A689B7891A
:10023000281B390B4A0B5B0BCA01B9010E943E2CEB
:100240002FE632E143E85AE30E94582D2B013C018E
:10025000B701FF0C880B990B0E94402C6B017C01AD
:10026000A30192010E94582DAD81BE811C962D9153
:100270003D914D915C911F970E94982A4B015C0122
:10028000ED81FE8184869586A686B7862089318990
:1002900042895389C701B6010E94972AA30192019E
:1002A0000E94962B2B013C01AD81BE815096CD92D0
:1002B000DD92ED92FC92539729813A814B815C81CA
:1002C00054962D933D934D935C9357972D913D916B
:1002D0004D915C91C701B6010E94582D6B017C01C4
:1002E000ED81FE812085318542855385C501B401AC
:1002F0000E94582D9B01AC01C701B6010E94982AAB
:100300006B017C01AD81BE8114962D913D914D9183
:100310005C911797C301B2010E94582D9B01AC015B
:10032000C701B6010E94982A0E94082CCB0126968C
:100330000FB6F894DEBF0FBECDBFDF91CF91FF9017
:10034000EF90DF90CF90BF90AF909F908F907F9075
:100350006F905F904F900895FC01108A118A128A65
:10036000138A14861586168617862FB7F8948091FF
:10037000210390912203A0912303B09124032FBF66
:10038000848B958BA68BB78B0895DC01EC91EC30B8
:1003900090F511968C91119728E830E0281B3109CF
:1003A00087FD3395220F331F220F331F6217730708
:1003B00084F012968C9128E532E0281B310987FDE4
:1003C0003395220F331F220F331F621773070CF46C
:1003D0009B0122503109220F331F4FB7F8948E2F03
:1003E00090E0FC01EE0FFF1FE80FF91FE350FD4FF7
:1003F000328321834FBF08952091D602260F3327E1
:10040000331F21323105ECF420919E03FC0190E072
:1004100080E0243069F082E00895A091D602219115
:10042000AC014C545D4FA40FB52FB11D2C93019618
:10043000861798F38091D602680F6093D60280E009
:10044000089581E00895089508950895E091330393
:1004500080913203E81730F4F0E0E258FC4F8081DD
:1004600090E008958FEF9FEF08959091330380916E
:1004700032032FEF3FEF981748F4E92FF0E0E258EE
:10048000FC4F208130E09F5F90933303C9010895B2
:100490008091320390913303891B990B0895CF9279
:1004A000DF92EF92FF920F931F93CF93DF937C0124
:1004B000CB018A0120913403222389F0EB016B01E7
:1004C000C40ED51ECC15DD0569F06991D701ED91FB
:1004D000FC910190F081E02DC7010995F3CF642FC5
:1004E0000E94FC01C801DF91CF911F910F91FF90F5
:1004F000EF90DF90CF900895CF93DF931F92CDB709
:10050000DEB76983209134032223F9F02091570349
:10051000203258F021E030E0FC013383228390E068
:1005200080E00F90DF91CF91089580913503E82FFF
:10053000F0E0EA5CFC4F998190838F5F80933503F4
:100540008093570381E090E0ECCF61E0CE0101960B
:100550000E94FC01F7CFFC01538D448D252F30E024
:10056000842F90E0821B930B541710F0CF960895C0
:1005700001970895FC01918D828D981761F0A28DED
:10058000AE0FBF2FB11D5D968C91928D9F5F9F73B3
:10059000928F90E008958FEF9FEF0895FC01918D69
:1005A000828D981731F0828DE80FF11D858D90E0D6
:1005B00008958FEF9FEF0895FC01918D228D892F73
:1005C00090E0805C9F4F821B91098F73992708955B
:1005D000FC01A48DA80FB92FB11DA35ABF4F2C91B8
:1005E000848D90E001968F739927848FA689B789AF
:1005F0002C93A089B1898C91837080648C93938DA6
:10060000848D981306C00288F389E02D80818F7D48
:1006100080830895EF92FF920F931F93CF93DF9300
:10062000EC0181E0888F9B8D8C8D98131AC0E8892E
:10063000F989808185FF15C09FB7F894EE89FF89FD
:100640006083E889F98980818370806480839FBF9B
:1006500081E090E0DF91CF911F910F91FF90EF909B
:100660000895F62E0B8D10E00F5F1F4F0F731127AB
:10067000E02E8C8D8E110CC00FB607FCFACFE889E6
:10068000F989808185FFF5CFCE010E94E802F1CF84
:10069000EB8DEC0FFD2FF11DE35AFF4FF0829FB75A
:1006A000F8940B8FEA89FB8980818062CFCFCF934A
:1006B000DF93EC01888D8823B9F0AA89BB89E8898A
:1006C000F9898C9185FD03C0808186FD0DC00FB630
:1006D00007FCF7CF8C9185FFF2CF808185FFEDCFAE
:1006E000CE010E94E802E9CFDF91CF91089580EB1F
:1006F00093E00E94DC0221E0892B09F420E0822FA4
:10070000089580E090E0892B29F00E947703811101
:100710000C940000089590E0FC01E25FFE4F2491EC
:10072000FC01E650FF4F3491FC01EA51FF4FE49188
:10073000EE23C9F0222339F0233001F1A8F421304F
:1007400019F1223029F1F0E0EE0FFF1FE452FF4FC4
:10075000A591B4918FB7F894EC91611126C03095B2
:100760003E233C938FBF08952730A9F02830C9F06D
:10077000243049F7809180008F7D03C080918000F4
:100780008F7780938000DFCF84B58F7784BDDBCFF8
:1007900084B58F7DFBCF8091B0008F778093B000C0
:1007A000D2CF8091B0008F7DF9CF3E2BDACF10925F
:1007B0009E0381E080937D031092780361E082E1E3
:1007C0000E948B0361E083E10E948B03E9EBF0E080
:1007D00080818E7F808380818D7F808388E4809379
:1007E000B80085E48093BC000895CF93DF9391E037
:1007F0009093B3028823B9F0C091B800D091BA00A9
:100800008091BC008A7B8093BC0060E082E10E9402
:100810008B0360E083E10E948B030E94D703D09397
:10082000BA00C093B800DF91CF9108953FB7F89414
:1008300080917D0290917E02A0917F02B091800212
:1008400026B5A89B05C02F3F19F00196A11DB11D2B
:100850003FBFBA2FA92F982F8827BC01CD01620F67
:10086000711D811D911D42E0660F771F881F991F22
:100870004A95D1F70895CF92DF92EF92FF920F93AE
:100880001F93CF93DF93D82FC62F613208F098C003
:100890000E9416046B017C0180919E0381116BC044
:1008A00081E080939E0380937D039FEF90937C0370
:1008B00010927B039C0F90937A038093790380912D
:1008C0007903DD0FD82BD0937903809178038130A1
:1008D00009F078C0109278030E9416046B017C0125
:1008E000809179038093BB008091A0039091A10334
:1008F000A091A203B091A303892B8A2B8B2BA1F08B
:100900000E9416040091A0031091A1032091A2035C
:100910003091A3036C197D098E099F0906171707EB
:100920002807390708F448C08091BC0083FDD8CF60
:1009300085EC8093BC000E9416046B017C018091C1
:100940009E03813009F440C080917B038C1710F422
:10095000C0917B03E8E5F3E0AEE7B3E080E08C1301
:1009600055C08C2FDF91CF911F910F91FF90EF9089
:10097000DF90CF9008958091A0039091A103A09162
:10098000A203B091A303892B8A2B8B2B09F484CF6C
:100990000E9416040091A0031091A1032091A203CC
:1009A0003091A3036C197D098E099F09061717075B
:1009B0002807390708F070CF80919F030E94F50344
:1009C000C0E0CFCF85EEB5CF8091A0039091A10379
:1009D000A091A203B091A303892B8A2B8B2B09F43E
:1009E000AECF0E9416040091A0031091A1032091A4
:1009F000A2033091A3036C197D098E099F09061784
:100A000017072807390708F09ACFD6CF91919D9301
:100A10008F5FA5CF8F929F92AF92BF92CF92DF92BE
:100A2000EF92FF920F931F93CF93DF93D0915703D1
:100A3000D13208F0D7C0182FC09156030E94160477
:100A40006B017C0180919E0381116BC082E08093D9
:100A50009E0310937D038FEF80937C0310927B03A2
:100A6000D0937A03A6E3B3E0E8E5F3E080E0D8139F
:100A700091C01092790380917903CC0FC82BC09359
:100A8000790380917803813009F088C0109278034F
:100A90000E9416046B017C01809179038093BB0056
:100AA0008091A0039091A103A091A203B091A30310
:100AB000892B8A2B8B2BA1F00E9416040091A00396
:100AC0001091A1032091A2033091A3036C197D0919
:100AD0008E099F09061717072807390708F442C02F
:100AE0008091BC0083FDD8CF85EC8093BC000E9430
:100AF00016046B017C0180919E03823009F450C082
:100B000080917C038F3F09F46FC080917C03803219
:100B100009F46CC080917C03803309F469C084E0DF
:100B200026C08091A0039091A103A091A203B0914F
:100B3000A303892B8A2B8B2B09F484CF0E941604E4
:100B40008090A0039090A103A090A203B090A30373
:100B50006C197D098E099F0986169706A806B906A5
:100B600008F070CF80919F030E94F50385E01092FA
:100B700035031092570310923403DF91CF911F91E8
:100B80000F91FF90EF90DF90CF90BF90AF909F902C
:100B90008F9008959D9191938F5F69CF85EEA5CF3A
:100BA0008091A0039091A103A091A203B091A3030F
:100BB000892B8A2B8B2B09F49ECF0E94160400915F
:100BC000A0031091A1032091A2033091A3036C19FB
:100BD0007D098E099F09061717072807390708F0AE
:100BE0008ACFC0CF81E0C3CF80E0C1CF82E0BFCF4A
:100BF00083E0BDCF8F929F92AF92BF92CF92DF9250
:100C0000EF92FF924B015C010E9416046B017C0184
:100C10000E9416046C197D098E099F09683E734075
:100C200081059105A8F321E0821A9108A108B10875
:100C300088EEC80E83E0D81EE11CF11C81149104DB
:100C4000A104B10429F7FF90EF90DF90CF90BF90FF
:100C5000AF909F908F900895AF92BF92CF92DF9206
:100C6000EF92FF920F931F93CF93DF936C017B0161
:100C70008B01040F151FEB015E01AE18BF08C017F2
:100C8000D10759F06991D601ED91FC910190F08165
:100C9000E02DC6010995892B79F7C501DF91CF9128
:100CA0001F910F91FF90EF90DF90CF90BF90AF908A
:100CB000089590E080E00895FC0101900020E9F79C
:100CC0003197AF01481B590BBC0180EB93E00C94AA
:100CD0002C068F929F92AF92BF920F931F93CF9348
:100CE000DF93CDB7DEB7A1970FB6F894DEBF0FBE86
:100CF000CDBF19A2423008F44AE08E010F5D1F4FAC
:100D0000842E912CB12CA12CA50194010E94542A6F
:100D1000E62FB901CA01EA30F4F4E05DD801EE93A0
:100D20008D01232B242B252B79F790E080E0109761
:100D300019F0CD010E945C06A1960FB6F894DEBFB3
:100D40000FBECDBFDF91CF911F910F91BF90AF909C
:100D50009F908F900895E95CE1CFCF93DF930E943D
:100D60005C06EC018EE691E00E945C068C0F9D1FF4
:100D7000DF91CF9108954F925F926F927F928F9201
:100D80009F92AF92BF92CF92DF92EF92FF926B0150
:100D90007C01AC019B010E940F2E8823C1F081E7EA
:100DA00091E00E945C067C018EE691E00E945C0668
:100DB0008E0D9F1DFF90EF90DF90CF90BF90AF9072
:100DC0009F908F907F906F905F904F900895460115
:100DD0005701E894B7F82FEF3FEF4FE75FE7C50102
:100DE000B4010E940F2E81110DC02FEF3FEF4FE78E
:100DF0005FE7C501B4010E94912B18161CF485E72A
:100E000091E0CFCF2FEF3FEF4FE75FE4C701B6018F
:100E10000E944B2D18161CF489E791E0C2CF2FEFEA
:100E20003FEF4FE75FECC701B6010E94912B87FDB2
:100E3000F3CF20E030E0A901C701B6010E94912B59
:100E4000B12CA12C87FF0AC06DE280EB93E00E94D9
:100E50000A035C01F7FAF094F7F8F0942AE037ED12
:100E600043EA5BE3C701B6010E94982A2B013C01CB
:100E70000E940F2C6B017C010E943E2C9B01AC0157
:100E8000C301B2010E94972A2B013C014AE0C7012D
:100E9000B6010E9469067C01EA0CFB1C6EE280EB45
:100EA00093E00E940A03E80EF91E20E030E040E2E1
:100EB00051E4C301B2010E94582D2B013C010E9454
:100EC0000F2C4B01B12CA12C4AE0C501B4010E94AA
:100ED0006906E80EF91EC501B4010E943E2C9B0173
:100EE000AC01C301B2010E94972A20E030E040E249
:100EF00051E40E94582D0E940F2C90E080E04AE0BF
:100F00000E946906E80EF91E4FCFCF93DF93FC01D4
:100F10002081273091F0EC018DE791E00E945C0682
:100F2000688170E090E080E04AE00E9469068EE609
:100F300091E0DF91CF910C945C06DF91CF91089501
:100F40000F931F93CF93DF93C82FD42F89018091E4
:100F500040059091410521E020933403C09356034E
:100F60001092350310925703DC01ED91FC91019032
:100F7000F081E02D099580E00E940A0580934205EA
:100F8000882321F082E495E00E9485076D2F8C2F45
:100F90000E943B041092330380933203C0E080919F
:100FA000400590914105DC01ED91FC910084F185B3
:100FB000E02D0995892B89F080914005909141059C
:100FC000DC01ED91FC910284F385E02D0995F80197
:100FD000EC0FF11D8083CF5FE2CFDF91CF911F91A6
:100FE0000F910895CF93C82F8091400590914105AE
:100FF00021E020933403C0935603109235031092DE
:101000005703DC01ED91FC910190F081E02D0995F1
:1010100080E00E940A0580934205882321F082E443
:1010200095E00E94850761E08C2F0E943B0410929E
:101030003303809332038091400590914105DC0198
:10104000ED91FC910084F185E02D0995892B69F0E3
:101050008091400590914105DC01ED91FC91028465
:10106000F385E02D0995CF91089580E0FCCFCF93D3
:10107000C42FA0914005B091410591E090933403B5
:10108000809356031092350310925703ED91FC9113
:1010900011970190F081E02DCD01099580914005D7
:1010A00090914105DC01ED91FC910190F081E02DE2
:1010B0006C2F099581E00E940A05809342058823E0
:1010C00029F082E495E0CF910C948507CF910895A3
:1010D0002F923F924F925F926F927F928F929F9248
:1010E000AF92BF92CF92DF92EF92FF920F931F9336
:1010F000CF93DF93CDB7DEB7CA5AD1090FB6F894B4
:10110000DEBF0FBECDBF80913D05882311F40C9446
:101110003B1B6AE3809153040E94F20780FD02C0EA
:101120000C943B1B9E012F5F3F4F4EE06BE3809181
:1011300053040E94A00769817A8176276727762762
:101140008B809C80982489249824AD80BE80BA240A
:10115000AB24BA240F811885102701271027C984D2
:10116000DA84DC24CD24DC24EB84FC84FE24EF240C
:10117000FE242D843E8432242324322440905F04B4
:10118000509060046090610470906204072E000C1F
:10119000880B990B0E94402CA30192010E94582DAC
:1011A0006093C9047093CA048093CB049093CC04D9
:1011B000B401990C880B990B0E94402CA301920159
:1011C0000E94582D6093CD047093CE048093CF0479
:1011D0009093D004B501BB0C880B990B0E94402C56
:1011E000A30192010E94582D6093D1047093D20400
:1011F0008093D3049093D4041093AC040093AB0475
:10120000B801110F880B990B0E94402C2CE53FEE82
:1012100046EA53E40E94962B20E030E048EA51E48D
:101220000E94982A6093AD047093AE048093AF043B
:101230009093B0048090630490906404A09065043F
:10124000B0906604B601DD0C880B990B0E94402C0F
:10125000A50194010E94582D6093D5047093D60483
:101260008093D7049093D804B701FF0C880B990B97
:101270000E94402CA50194010E94582D6093D9042E
:101280007093DA048093DB049093DC04B101330C97
:10129000880B990B0E94402CA50194010E94582DA7
:1012A0006093DD047093DE048093DF049093E00488
:1012B00062E08CE00E94F207182F80FFD3C09E01ED
:1012C0002F5F3F4F47E063E08CE00E94A00711FDD5
:1012D000C9C08F8183FDC6C0A980BA800B811C81E3
:1012E0002D803E80C0906704D0906804E09069042F
:1012F000F0906A042FEF3BEE4FEB5FE3C701B601BE
:101300000E94962B2B013C01B501BB0C880B990B5D
:101310000E94402CA70196010E94582D2091830421
:101320003091840440918504509186040E94582D88
:101330004B015C0120918F04309190044091910405
:1013400050919204C301B2010E94582D9B01AC013F
:10135000C501B4010E94972A20919B0430919C04FE
:1013600040919D0450919E040E94582D6093E10489
:101370007093E2048093E3049093E404B801110FA6
:10138000880B990B0E94402CA70196010E94582DB2
:1013900020918704309188044091890450918A04F7
:1013A0000E94582D4B015C012091930430919404CC
:1013B0004091950450919604C301B2010E94582DAA
:1013C0009B01AC01C501B4010E94972A20919F04A2
:1013D0003091A0044091A1045091A2040E94582D84
:1013E0006093E5047093E6048093E7049093E80427
:1013F000B101330C880B990B0E94402CA701960178
:101400000E94582D20918B0430918C0440918D04C2
:1014100050918E040E94582D6B017C0120919704FD
:10142000309198044091990450919A04C301B201FB
:101430000E94582D9B01AC01C701B6010E94972A5A
:101440002091A3043091A4044091A5045091A604D6
:101450000E94582D6093E9047093EA048093EB0492
:101460009093EC042091C9043091CA044091CB04BC
:101470005091CC04C358DF4F288339834A835B8360
:10148000CD57D0405058C956DF4F288339834A83FF
:101490005B83C759D0408091CD049091CE04A09138
:1014A000CF04B091D004E5968CAF9DAFAEAFBFAF87
:1014B000E5972091D1043091D2044091D30450910A
:1014C000D404E9962CAF3DAF4EAF5FAFE99725E36B
:1014D0003AEF4EE85CE36091D5047091D6048091B8
:1014E000D7049091D8040E94582D162F072F382E1C
:1014F000292E6091D9047091DA048091DB049091D7
:10150000DC04905825E33AEF4EE85CE30E94582D46
:101510006BAF7FAB8FAF24969FAF24976091DD04B4
:101520007091DE048091DF049091E004905825E3EF
:101530003AEF4EE85CE30E94582D28966FAF28974B
:1015400060967FAF609764968FAF649765969FAF04
:1015500065978091E5049091E604A091E704B0912D
:10156000E804C757DF4F88839983AA83BB83C95890
:10157000D0402091E1043091E2044091E304509185
:10158000E404C357DF4F288339834A835B83CD58F4
:10159000D0405058C955DF4F288339834A835B8335
:1015A000C75AD0408091E9049091EA04A091EB04DD
:1015B000B091EC04CF56DF4F88839983AA83BB8315
:1015C000C159D040CB56DF4F19821882C559D0403F
:1015D00080913B0590913C05CB56DF4FA881B981A6
:1015E000C559D040A817B90710F00C94CA1A0E9428
:1015F00016046B017C01C0923305D0923405E09251
:101600003505F09236058091370590913805A09107
:101610003905B0913A05A7019601281B390B4A0BF1
:101620005B0BCA01B9010E943E2CC0923705D092D3
:101630003805E0923905F0923A052FE632E143E8A9
:101640005AE30E94582D2FE632E143E85AE30E9404
:10165000582D6BAB7CAB8DAB9EAB60932F0570931D
:101660003005809331059093320580912D0590913E
:101670002E058130910509F463C12091ED0430916C
:10168000EE044091EF045091F0042F87388B498B82
:101690005A8B2091F1043091F2044091F30450915F
:1016A000F4042B8F3C8F4D8F5E8F2091F504309189
:1016B000F6044091F7045091F8042F8F38A349A302
:1016C0005AA32091F9043091FA044091FB045091FF
:1016D000FC042B8B3C8B4D8B5E8B029711F40C948E
:1016E00015176B8D7C8D8D8D9E8D9058212F302FF1
:1016F000432D522D0E94582D6B017C012F8D38A156
:1017000049A15AA16BAD7FA98FAD24969FAD2497B7
:101710000E94582D9B01AC01C701B6010E94972A77
:101720006B017C012B893C894D895E8928966FADC0
:10173000289760967FAD609764968FAD64976596A5
:101740009FAD65970E94582D9B01AC01C701B60162
:101750000E94972A20E030E040E05FE30E94582D8D
:101760002BA93CA94DA95EA90E94582D2F85388927
:1017700049895A890E94982A6F8B788F898F9A8F0E
:101780002F85388949895A89612F702F832D922D91
:101790000E94582D6B017C012F8D38A149A15AA1BF
:1017A00028966FAD289760967FAD609764968FAD51
:1017B000649765969FAD65970E94582D9B01AC017B
:1017C000C701B6010E94982A6B017C012B893C89D4
:1017D0004D895E896BAD7FA98FAD24969FAD24970F
:1017E0000E94582D9B01AC01C701B6010E94972AA7
:1017F00020E030E040E05FE30E94582D2BA93CA997
:101800004DA95EA90E94582D2B8D3C8D4D8D5E8D6E
:101810000E94982A6BA37CA38DA39EA32F85388951
:1018200049895A896BAD7FA98FAD24969FAD2497C6
:101830000E94582D6B017C012B8D3C8D4D8D5E8D52
:1018400028966FAD289760967FAD609764968FADB0
:10185000649765969FAD65970E94582D9B01AC01DA
:10186000C701B6010E94972A6B017C012B893C8934
:101870004D895E89612F702F832D922D0E94582DE6
:101880009B01AC01C701B6010E94982A20E030E01C
:1018900040E05FE30E94582D2BA93CA94DA95EA909
:1018A0000E94582D2F8D38A149A15AA10E94982A33
:1018B0002B013C012F85388949895A8928966FADBB
:1018C000289760967FAD609764968FAD6497659614
:1018D0009FAD65970E94582D6B017C012B8D3C8D2F
:1018E0004D8D5E8D6BAD7FA98FAD24969FAD2497F6
:1018F0000E94582D9B01AC01C701B6010E94982A95
:101900006B017C012F8D38A149A15AA1612F702F45
:10191000832D922D0E94582D9B01AC01C701B60169
:101920000E94972A20E030E040E05FE30E94582DBB
:101930002BA93CA94DA95EA90E94582D0C942A1AE6
:10194000C358DF4F288139814A815B81CD57D04010
:10195000CA01B9010E94582D6B017C01E5962CAD9E
:101960003DAD4EAD5FADE597CA01B9010E94582D5E
:101970009B01AC01C701B6010E94982A6B017C0152
:10198000E9962CAD3DAD4EAD5FADE997CA01B90109
:101990000E94582D9B01AC01C701B6010E94982AF4
:1019A0006B017C0120E030E0A9010E94912B88238B
:1019B00011F40C940517C701B6010E94CB2D4B0101
:1019C0005C01C757DF4F288139814A815B81C95843
:1019D000D040CA01B9010E94582D6B017C01C35748
:1019E000DF4F288139814A815B81CD58D040CA01BF
:1019F000B9010E94582D9B01AC01C701B6010E949C
:101A0000982A6B017C01CF56DF4F288139814A81AA
:101A10005B81C159D040CA01B9010E94582D9B0178
:101A2000AC01C701B6010E94982A6B017C0120E03D
:101A300030E0A9010E94912B882311F40C94051722
:101A40008091ED049091EE04A091EF04B091F00428
:101A50008B8F9C8FAD8FBE8F2091F1043091F2045B
:101A60004091F3045091F4042B8B3C8B4D8B5E8B97
:101A70004090F5045090F6046090F7047090F804DC
:101A80008091F9049091FA04A091FB04B091FC04B8
:101A90008F87988BA98BBA8BA501940160E070E0C9
:101AA00080E89FE30E94962BED966CAF7DAF8EAFE2
:101AB0009FAFED97C701B6010E94CB2D9B01AC01F2
:101AC00060E070E080E89FE30E94962B6B017C0150
:101AD000AC019B01C757DF4F688179818A819B8167
:101AE000C958D0400E94582D6BA77CA78DA79EA7F0
:101AF000A7019601C955DF4F688179818A819B8151
:101B0000C75AD0400E94582D6F8B788F898F9A8F3B
:101B1000A7019601CF56DF4F688179818A819B8129
:101B2000C159D0400E94582D6BA37CA38DA39EA3C6
:101B30002B8D3C8D4D8D5E8DCA01B9010E94982A76
:101B40006FA378A789A79AA79B01AC016BA57CA579
:101B50008DA59EA50E94582DE1966CAF7DAF8EAFEE
:101B60009FAFE1972FA138A549A55AA56F89788D18
:101B7000898D9A8D0E94582DCF57DF4F68837983C6
:101B80008A839B83C158D0402FA138A549A55AA567
:101B90006BA17CA18DA19EA10E94582D4B015C01DF
:101BA0002B893C894D895E89CA01B9010E94982A16
:101BB000A9966CAF7DAF8EAF9FAFA9979B01AC018B
:101BC0006BA57CA58DA59EA50E94582DCB57DF4FF8
:101BD000688379838A839B83C558D040A30192018F
:101BE000C301B2010E94982AAD966CAF7DAF8EAF53
:101BF0009FAFAD972F85388949895A89CA01B901A4
:101C00000E94982AC556DF4F688379838A839B8315
:101C1000CB59D0402B8D3C8D4D8D5E8DCA01B901C5
:101C20000E94582D6D966CAF7DAF8EAF9FAF6D97B4
:101C30002B893C894D895E896B8D7C8D8D8D9E8D28
:101C40000E94582DA5966CAF7DAF8EAF9FAFA59724
:101C5000A30192016B8D7C8D8D8D9E8D0E94582DE0
:101C6000C156DF4F688379838A839B83CF59D040E5
:101C70002B893C894D895E89CA01B9010E94582D82
:101C80002F966CAF7DAF8EAF9FAF2F972F85388982
:101C900049895A896B897C898D899E890E94582D32
:101CA00069966CAF7DAF8EAF9FAF6997A30192012C
:101CB000C301B2010E94582D6FA778AB89AB9AABD4
:101CC0002F85388949895A89CA01B9010E94582D3E
:101CD000A1966CAF7DAF8EAF9FAFA1976D962CADE7
:101CE0003DAD4EAD5FAD6D976BA57CA58DA59EA559
:101CF0000E94582D6B017C01CF57DF4F288139811D
:101D00004A815B81C158D0406F85788989899A89D9
:101D10000E94582D9B01AC01C701B6010E94972A71
:101D20006B017C01A5019401C301B2010E94582DF1
:101D30009B01AC01C701B6010E94982A6B017C018E
:101D40002F962CAD3DAD4EAD5FAD2F976BA57CA50D
:101D50008DA59EA50E94582D9B01AC01C701B6011F
:101D60000E94982A6B017C01A9962CAD3DAD4EAD29
:101D70005FADA9976F89788D898D9A8D0E94582DB6
:101D8000A30192010E94582D9B01AC01C701B6012D
:101D90000E94982A6B017C01A9962CAD3DAD4EADF9
:101DA0005FADA9976BA17CA18DA19EA10E94582D2A
:101DB0002F85388949895A890E94582D9B01AC0189
:101DC000C701B6010E94982A6B017C012FA538A992
:101DD00049A95AA96BA57CA58DA59EA50E94582D41
:101DE0009B01AC01C701B6010E94972A6B017C01DF
:101DF000A1962CAD3DAD4EAD5FADA1976BA57CA579
:101E00008DA59EA50E94582D9B01AC01C701B6016E
:101E10000E94972A6B017C01E1962CAD3DAD4EAD41
:101E20005FADE1976F85788989899A890E94582DDD
:101E30006F8F78A389A39AA36D962CAD3DAD4EAD5F
:101E40005FAD6D976F89788D898D9A8D0E94582D21
:101E50009B01AC016F8D78A189A19AA10E94982A5B
:101E60006F8F78A389A39AA3A50194016B897C89BC
:101E70008D899E890E94582D9B01AC016F8D78A1A0
:101E800089A19AA10E94972A4B015C01CB57DF4F91
:101E9000288139814A815B81C558D040C301B20194
:101EA0000E94582D9B01AC01C501B4010E94982AE3
:101EB0004B015C012F962CAD3DAD4EAD5FAD2F9724
:101EC0006F89788D898D9A8D0E94582D9B01AC0168
:101ED000C501B4010E94972A4B015C012FA538A9C6
:101EE00049A95AA96F89788D898D9A8D0E94582D9C
:101EF0009B01AC01C501B4010E94982A4B015C0111
:101F0000AD962CAD3DAD4EAD5FADAD976BA17CA157
:101F10008DA19EA10E94582D2F85388949895A8903
:101F20000E94582D9B01AC01C501B4010E94982A62
:101F30004B015C01A1962CAD3DAD4EAD5FADA197BF
:101F40006F89788D898D9A8D0E94582D9B01AC01E7
:101F5000C501B4010E94972A4B015C01A7019601BB
:101F6000C701B6010E94582D6B017C01A5019401A7
:101F7000C501B4010E94582D9B01AC01C701B601F7
:101F80000E94982A0E94CB2D6F8F78A389A39AA3D1
:101F9000E1966CAD7DAD8EAD9FADE1979058A301FC
:101FA00092010E94582D6B017C01CF57DF4F288191
:101FB00039814A815B81C158D0406B897C898D8988
:101FC0009E890E94582D9B01AC01C701B6010E9459
:101FD000982A6B017C016D962CAD3DAD4EAD5FAD89
:101FE0006D976BA17CA18DA19EA10E94582D9B0194
:101FF000AC01C701B6010E94982A6B017C01CB5746
:10200000DF4F288139814A815B81C558D0406F8577
:10201000788989899A890E94582D9B01AC01C70152
:10202000B6010E94982A6B017C012F962CAD3DAD24
:102030004EAD5FAD2F976BA17CA18DA19EA10E949B
:10204000582D9B01AC01C701B6010E94972A6B0174
:102050007C01AD962CAD3DAD4EAD5FADAD976F89BA
:10206000788D898D9A8D0E94582D2F8538894989C0
:102070005A890E94582D9B01AC01C701B6010E94EC
:10208000982A6B017C012FA538A949A95AA96BA1EF
:102090007CA18DA19EA10E94582D9B01AC01C7017E
:1020A000B6010E94972A6B017C01A1962CAD3DAD33
:1020B0004EAD5FADA1976BA17CA18DA19EA10E94A9
:1020C000582D9B01AC01C701B6010E94982A6B01F3
:1020D0007C01AC019B010E94982ACF57DF4F688397
:1020E00079838A839B83C158D04069962CAD3DADDE
:1020F0004EAD5FAD6997CA01B9010E94982A4B01A4
:102100005C012FA138A549A55AA5C301B2010E94BF
:10211000582D9B01AC01C501B4010E94972A4B01C7
:102120005C01ED962CAD3DAD4EAD5FADED97C95662
:10213000DF4F688179818A819B81C759D0400E9495
:10214000582D9B01AC01C501B4010E94972A6D96E0
:102150006CAF7DAF8EAF9FAF6D97AD962CAD3DADA3
:102160004EAD5FADAD976F85788989899A890E9458
:10217000582D4B015C01A5962CAD3DAD4EAD5FAD2C
:10218000A597CA01B9010E94982A9B01AC01C5011B
:10219000B4010E94982A4B015C01ED962CAD3DAD37
:1021A0004EAD5FADED97E5966CAD7DAD8EAD9FAD5F
:1021B000E5970E94582D9B01AC01C501B4010E9416
:1021C000972AE1966CAF7DAF8EAF9FAFE197A701E5
:1021D0009601C301B2010E94582DCB57DF4F68838F
:1021E00079838A839B83C558D0402FA538A949A9F4
:1021F0005AA960E070E080E09FE30E94972AA196D0
:102200002CAD3DAD4EAD5FADA1970E94972A2F8DAD
:1022100038A149A15AA10E94582D4B015C01C15619
:10222000DF4F288139814A815B81CF59D04069963F
:102230006CAD7DAD8EAD9FAD69970E94972AA701C9
:1022400096010E94582D9B01AC01C501B4010E946A
:10225000982A2BA53CA54DA55EA50E94972A6BA7A1
:102260007CA78DA79EA72F8D38A149A15AA15058B0
:10227000A1962CAF3DAF4EAF5FAFA197A7019601DE
:102280006B897C898D899E890E94582DCD55DF4FA1
:10229000688379838A839B83C35AD040A3019201C8
:1022A0006B897C898D899E890E94582D4B015C0128
:1022B0002F85388949895A896B8D7C8D8D8D9E8DAE
:1022C0000E94582D9B01AC01C501B4010E94972AC0
:1022D0002F8D38A149A15AA10E94582D4B015C01B4
:1022E0002F85388949895A89C301B2010E94582D26
:1022F000A5962CAD3DAD4EAD5FADA5970E94982A39
:10230000A70196010E94582D9B01AC01C501B401A3
:102310000E94982A2F89388D498D5A8D0E94972ABC
:102320006F8B788F898F9A8F2F8D38A149A15AA1F1
:10233000C301B2010E94582DA5966CAF7DAF8EAF40
:102340009FAFA5972F962CAD3DAD4EAD5FAD2F97AE
:1023500060E070E080E09FE30E94972A2FA538A9F3
:1023600049A95AA90E94972AA70196010E94582DAF
:102370004B015C0169962CAD3DAD4EAD5FAD6997EB
:10238000C156DF4F688179818A819B81CF59D040C6
:102390000E94982A2F8D38A149A15AA10E94582D38
:1023A0009B01AC01C501B4010E94982A2BA13CA15C
:1023B0004DA15EA10E94972A6BA37CA38DA39EA32F
:1023C000AD966CAD7DAD8EAD9FADAD9790586D96D1
:1023D0002CAD3DAD4EAD5FAD6D970E94582D4B01BC
:1023E0005C01E1962CAD3DAD4EAD5FADE197A99698
:1023F0006CAD7DAD8EAD9FADA9970E94582D9B0110
:10240000AC01C501B4010E94982A4B015C012BA5C7
:102410003CA54DA55EA5CB57DF4F688179818A81A8
:102420009B81C558D0400E94582D9B01AC01C5012D
:10243000B4010E94972A4B015C01A1962CAD3DADE1
:102440004EAD5FADA1976F85788989899A890E9481
:10245000582DCD55DF4F288139814A815B81C35A80
:10246000D0400E94982A2F89388D498D5A8D0E941C
:10247000582D9B01AC01C501B4010E94982A4B0163
:102480005C012BA13CA14DA15EA1A5966CAD7DADDB
:102490008EAD9FADA5970E94582D9B01AC01C50143
:1024A000B4010E94982A69966CAF7DAF8EAF9FAF42
:1024B00069972F962CAD3DAD4EAD5FAD2F97CA01FC
:1024C000B9010E94982A9B01AC0160E070E080E8AD
:1024D0009FE30E94972A4B015C012FA538A949A9C7
:1024E0005AA9CA01B9010E94982A9B01AC01C501F1
:1024F000B4010E94972A4B015C01ED962CAD3DADD5
:102500004EAD5FADED97E9966CAD7DAD8EAD9FADF7
:10251000E9970E94582D9B01AC01C501B4010E94AE
:10252000972A2F966CAF7DAF8EAF9FAF2F97A701E5
:1025300096016F85788989899A890E94582D4B0167
:102540005C01A70196016B8D7C8D8D8D9E8D0E9407
:10255000582DED966CAF7DAF8EAF9FAFED976D961A
:102560002CAD3DAD4EAD5FAD6D97C556DF4F68816B
:1025700079818A819B81CB59D0400E94582D6B0173
:102580007C01E1962CAD3DAD4EAD5FADE1976FA105
:1025900078A589A59AA50E94582D9B01AC01C70179
:1025A000B6010E94982A6B017C0120E030E040E8EF
:1025B00050E46B897C898D899E890E94582D2F96C5
:1025C0002CAD3DAD4EAD5FAD2F970E94582D9B01B8
:1025D000AC01C701B6010E94972A6B017C01A501DD
:1025E00094016BA57CA58DA59EA50E94582D9B01ED
:1025F000AC01C701B6010E94982A6B017C01ED96DF
:102600002CAD3DAD4EAD5FADED97A5966CAD7DADFE
:102610008EAD9FADA5970E94982A2F89388D498D40
:102620005A8D0E94582D9B01AC01C701B6010E9432
:10263000982A6B017C012F8D38A149A15AA16F8581
:10264000788989899A890E94582D6FA778AB89ABC0
:102650009AABCF57DF4F288139814A815B81C158BE
:10266000D0406B897C898D899E890E94582D9B0161
:10267000AC016FA578A989A99AA90E94972A2BA1D4
:102680003CA14DA15EA10E94582D9B01AC01C70148
:10269000B6010E94982A6FA778AB89AB9AAB2F8DB1
:1026A00038A149A15AA1CA01B9010E94982A6B0117
:1026B0007C01F7FAF094F7F8F0942F8D38A149A136
:1026C0005AA16B897C898D899E890E94582DA59677
:1026D0006CAF7DAF8EAF9FAFA5976FA178A589A591
:1026E0009AA590586D962CAD3DAD4EAD5FAD6D97F2
:1026F0000E94582D6FA378A789A79AA7E1962CADC1
:102700003DAD4EAD5FADE197C556DF4F6881798134
:102710008A819B81CB59D0400E94582D9B01AC01EE
:102720006FA178A589A59AA50E94982A6FA378A77A
:1027300089A79AA720E030E040E850E4C301B20145
:102740000E94582D2F962CAD3DAD4EAD5FAD2F970D
:102750000E94582D9B01AC016FA178A589A59AA56F
:102760000E94972A6FA378A789A79AA7A701960125
:10277000C301B2010E94582DED962CAD3DAD4EAD7A
:102780005FADED970E94972A2BA53CA54DA55EA5B0
:102790000E94582D9B01AC016FA178A589A59AA52F
:1027A0000E94982A6FA378A789A79AA7A5962CAD0F
:1027B0003DAD4EAD5FADA597C501B4010E94982A0D
:1027C0002F89388D498D5A8D0E94582D9B01AC015F
:1027D0006FA178A589A59AA50E94982A4B015C0152
:1027E0002F8D38A149A15AA16B8D7C8D8D8D9E8D29
:1027F0000E94582D6F8F78A389A39AA3CF57DF4FDC
:10280000288139814A815B81C158D040C301B2011E
:102810000E94582D9B01AC016F8D78A189A19AA1CE
:102820000E94972A2BA13CA14DA15EA10E94582D88
:102830009B01AC01C501B4010E94982A6FA378A73F
:1028400089A79AA76D962CAD3DAD4EAD5FAD6D9746
:10285000A9966CAD7DAD8EAD9FADA9970E94582D08
:102860004B015C01E1962CAD3DAD4EAD5FADE19706
:10287000AD966CAD7DAD8EAD9FADAD970E94582DE0
:102880009B01AC01C501B4010E94982A4B015C0177
:10289000A70196016F85788989899A890E94582DA8
:1028A000CD55DF4F288139814A815B81C35AD040A1
:1028B0000E94982A2BA53CA54DA55EA50E94582DE7
:1028C0009B01AC01C501B4010E94982A6B017C01F7
:1028D000A1962CAD3DAD4EAD5FADA1976B8D7C8DBE
:1028E0008D8D9E8D0E94582DCB57DF4F28813981C9
:1028F0004A815B81C558D0400E94982A2F89388D23
:10290000498D5A8D0E94582D9B01AC01C701B6011B
:102910000E94982A6B017C01A5962CAD3DAD4EAD71
:102920005FADA5976BA17CA18DA19EA10E94582DA2
:102930009B01AC01C701B6010E94982A6F8B788F6A
:10294000898F9A8F69962CAD3DAD4EAD5FAD69977D
:10295000CA01B9010E94582D6B017C012FA538A92D
:1029600049A95AA9CA01B9010E94582D9B01AC017D
:10297000C701B6010E94982A6B017C012FA138A5DE
:1029800049A55AA5CA01B9010E94582D9B01AC0165
:10299000C701B6010E94982A6B017C012F89388DEE
:1029A000498D5A8DCA01B9010E94582D9B01AC0175
:1029B000C701B6010E94982A0E94CB2D9B01AC0151
:1029C00060E070E080E89FE30E94962B6F8F78A311
:1029D00089A39AA380901D0590901E05A0901F05C5
:1029E000B09020056B897C898D899E899058212F14
:1029F000302F432D522D0E94582D6B017C01A301D5
:102A000092016BAD7FA98FAD24969FAD24970E9454
:102A1000582D9B01AC01C701B6010E94972A6B019A
:102A20007C012F85388949895A8928966FAD289766
:102A300060967FAD609764968FAD649765969FAD05
:102A400065970E94582D9B01AC01C701B6010E94F9
:102A5000972A20E030E040E05FE30E94582D6BA30E
:102A60007CA38DA39EA32B8D3C8D4D8D5E8D612F00
:102A7000702F832D922D0E94582D6B017C01A30194
:102A8000920128966FAD289760967FAD6097649607
:102A90008FAD649765969FAD65970E94582D9B01F9
:102AA000AC01C701B6010E94982A6B017C012F85F9
:102AB000388949895A896BAD7FA98FAD24969FAD1E
:102AC00024970E94582D9B01AC01C701B6010E94BA
:102AD000972A20E030E040E05FE30E94582D6BA78A
:102AE0007CA78DA79EA72B8D3C8D4D8D5E8D6BADEC
:102AF0007FA98FAD24969FAD24970E94582D6B011E
:102B00007C012B893C894D895E8928966FAD289779
:102B100060967FAD609764968FAD649765969FAD24
:102B200065970E94582D9B01AC01C701B6010E9418
:102B3000972A6B017C012F85388949895A89612F31
:102B4000702F832D922D0E94582D9B01AC01C7013F
:102B5000B6010E94982A20E030E040E05FE30E9446
:102B6000582D2F966CAF7DAF8EAF9FAF2F972B8DCB
:102B70003C8D4D8D5E8D28966FAD289760967FAD0C
:102B8000609764968FAD649765969FAD65970E9438
:102B9000582D6B017C012B893C894D895E896BAD79
:102BA0007FA98FAD24969FAD24970E94582D9B013D
:102BB000AC01C701B6010E94982A6B017C01A301F8
:102BC0009201612F702F832D922D0E94582D9B0111
:102BD000AC01C701B6010E94972A20E030E040E036
:102BE0005FE30E94582D6B017C012F8D38A149A114
:102BF0005AA169966CAD7DAD8EAD9FAD69970E946F
:102C0000582DA50194010E94582D9B01AC016BA188
:102C10007CA18DA19EA10E94972A2BA93CA94DA918
:102C20005EA90E94582D2B8D3C8D4D8D5E8D0E948E
:102C3000982A6B8F7C8F8D8F9E8F2F8D38A149A105
:102C40005AA16FA578A989A99AA90E94582DA50112
:102C500094010E94582D9B01AC016BA57CA58DA50C
:102C60009EA50E94972A2BA93CA94DA95EA90E9466
:102C7000582D2B893C894D895E890E94982A6B8B3F
:102C80007C8B8D8B9E8B2F8D38A149A15AA16FA172
:102C900078A589A59AA50E94582DA50194010E94A6
:102CA000582D9B01AC012F966CAD7DAD8EAD9FADC7
:102CB0002F970E94972A2BA93CA94DA95EA90E9493
:102CC000582DA30192010E94982A2B013C012F8DBF
:102CD00038A149A15AA16F89788D898D9A8D0E945A
:102CE000582DA50194010E94582D9B01AC01C701EC
:102CF000B6010E94972A2BA93CA94DA95EA90E9462
:102D0000582D2F85388949895A890E94982A4B0164
:102D10005C012B8D3C8D4D8D5E8DCA01B9010E94E9
:102D2000582D6B017C012B893C894D895E89CA0134
:102D3000B9010E94582D9B01AC01C701B6010E9448
:102D4000982A6B017C01A3019201C301B2010E9488
:102D5000582D9B01AC01C701B6010E94982A6B0156
:102D60007C01A5019401C501B4010E94582D9B016D
:102D7000AC01C701B6010E94982A0E94CB2D9B018D
:102D8000AC0160E070E080E89FE30E94962B6B014D
:102D90007C01AC019B016B8D7C8D8D8D9E8D0E9485
:102DA000582D6093ED047093EE048093EF0490939C
:102DB000F004A70196016B897C898D899E890E9408
:102DC000582D6093F1047093F2048093F304909370
:102DD000F404A7019601C301B2010E94582D60932B
:102DE000F5047093F6048093F7049093F804A70118
:102DF0009601C501B4010E94582D6093F9047093A7
:102E0000FA048093FB049093FC04CB56DF4F288197
:102E10003981C559D0402F5F3F4FCB56DF4F3983A3
:102E20002883C559D0400C94E80AC358DF4F288145
:102E300039814A815B81CD57D040CA01B9010E94D6
:102E4000582D6B017C01E5962CAD3DAD4EAD5FADCF
:102E5000E597CA01B9010E94582D9B01AC01C70139
:102E6000B6010E94982A6B017C01E9962CAD3DAD1C
:102E70004EAD5FADE997CA01B9010E94582D9B0183
:102E8000AC01C701B6010E94982A6B017C0120E0C9
:102E900030E0A9010E944B2D18160CF058C3C70151
:102EA000B6010E94CB2D9B01AC0160E070E080E890
:102EB0009FE30E94962B6B017C01AC019B01C956DC
:102EC000DF4F688179818A819B81C759D0400E94F8
:102ED000582D6BA77CA78DA79EA7A7019601E59605
:102EE0006CAD7DAD8EAD9FADE5970E94582D2B0149
:102EF0003C01A7019601E9966CAD7DAD8EAD9FAD0D
:102F0000E9970E94582D4B015C012B893C894D8922
:102F10005E896B8D7C8D8D8D9E8D0E94582D6B01F1
:102F20007C012F8D38A149A15AA16F8578898989A3
:102F30009A890E94582D9B01AC01C701B6010E94DD
:102F4000972A6FA778AB89AB9AAB2F8538894989C7
:102F50005A896B8D7C8D8D8D9E8D0E94582D6B01B5
:102F60007C012F8D38A149A15AA16B897C898D895B
:102F70009E890E94582D9B01AC01C701B6010E9499
:102F8000982A6FA378A789A79AA72F853889498996
:102F90005A89CA01B9010E94582D20E030E040E072
:102FA0005FE30E94972A6B017C012B893C894D8944
:102FB0005E89CA01B9010E94582D9B01AC01C7016D
:102FC000B6010E94982A6B017C01AC019B01C301F0
:102FD000B2010E94582D6F8B788F898F9A8F2FA105
:102FE00038A549A55AA5C501B4010E94582D9B01D9
:102FF000AC016F89788D898D9A8D0E94972A6F8B8D
:10300000788F898F9A8F2FA538A949A95AA9C50108
:10301000B4010E94582D4B015C01A70196016BA5DC
:103020007CA58DA59EA50E94582D9B01AC01C501D4
:10303000B4010E94972A6BA37CA38DA39EA32FA10A
:1030400038A549A55AA56BA57CA58DA59EA50E946E
:10305000582D6B017C012FA538A949A95AA9C30194
:10306000B2010E94582D9B01AC01C701B6010E941C
:10307000972A6BA77CA78DA79EA7C0902905D09003
:103080002A05E0902B05F0902C0520E030E0A90106
:10309000C701B6010E944B2D18160CF03AC2A701C9
:1030A00096016F89788D898D9A8D0E94582D2BA954
:1030B0003CA94DA95EA90E94582D20912E03309164
:1030C0002F0340913003509131030E94982A2B0125
:1030D0003C0140922E0350922F0360923003709275
:1030E0003103A70196016BA17CA18DA19EA10E9435
:1030F000582D2BA93CA94DA95EA90E94582D2091BD
:103100002A0330912B0340912C0350912D030E94F0
:10311000982A4B015C0180922A0390922B03A09283
:103120002C03B0922D03A70196016BA57CA58DA55C
:103130009EA50E94582D2BA93CA94DA95EA90E94CD
:10314000582D209126033091270340912803509158
:1031500029030E94982A6B017C01C0922603D09219
:103160002703E0922803F0922903A3019201612F23
:10317000702F832D922D0E94982A3B018FA7492EF4
:10318000A50194016BAD7FA98FAD24969FAD2497C7
:103190000E94982A4B015C01A701960128966FAD09
:1031A000289760967FAD609764968FAD649765961B
:1031B0009FAD65970E94982A6FA32C967FAF2C979E
:1031C000A6968FAFA697592EC0902505D0902605BC
:1031D000E0902705F0902805A70196016F89788D6A
:1031E000898D9A8D0E94582D93014FA5542D0E94D0
:1031F000982A6F8B7FA7AA968FAFAA9766969FAFE4
:103200006697A70196016BA17CA18DA19EA10E944A
:10321000582D9401A5010E94982A6BA36E967FAF4A
:103220006E97482E6A969FAF6A97A70196016BA585
:103230007CA58DA59EA50E94582D2FA12C963FAD53
:103240002C97A6964FADA697552D0E94982A562EDC
:10325000672E782E9BA720E030E040E05FE36BA96B
:103260007CA98DA99EA90E94582D4B015C018092DA
:103270002F0590923005A0923105B09232052F892A
:103280003FA5AA964FADAA9766965FAD66970E9436
:10329000582D6BAB7CAB8DAB9EAB2BA16E963FAD2F
:1032A0006E97442D6A965FAD6A97C501B4010E947E
:1032B000582D6B017C01252D362D472D5BA5C501B1
:1032C000B4010E94582D4B015C016B8D7C8D8D8D5E
:1032D0009E8D90582BA93CA94DA95EA90E94582DFE
:1032E0002B013C012F8D38A149A15AA1C701B6017C
:1032F0000E94582D9B01AC01C301B2010E94972A84
:103300002B013C012B893C894D895E89C501B401A3
:103310000E94582D9B01AC01C301B2010E94972A63
:103320002F85388949895A890E94982A6F8B788F0E
:10333000898F9A8F2F85388949895A896BA97CA9E9
:103340008DA99EA90E94582D2B013C012F8D38A1DB
:1033500049A15AA1C501B4010E94582D9B01AC019D
:10336000C301B2010E94982A2B013C012B893C89A0
:103370004D895E89C701B6010E94582D9B01AC01A1
:10338000C301B2010E94972A2B8D3C8D4D8D5E8D1D
:103390000E94982A6BA37CA38DA39EA32F853889B6
:1033A00049895A89C701B6010E94582D2B013C0159
:1033B0002B8D3C8D4D8D5E8DC501B4010E94582D25
:1033C0009B01AC01C301B2010E94972A2B013C0171
:1033D0002B893C894D895E896BA97CA98DA99EA901
:1033E0000E94582D9B01AC01C301B2010E94982A92
:1033F0002F8D38A149A15AA10E94982A2B013C0186
:103400002F85388949895A89C501B4010E94582DF0
:103410004B015C012B8D3C8D4D8D5E8DC701B6013E
:103420000E94582D9B01AC01C501B4010E94982A4D
:103430006B017C012F8D38A149A15AA16BA97CA9F0
:103440008DA99EA90E94582D9B01AC01C701B60110
:103450000E94972A2B893C894D895E890E94982A6F
:103460004B015C012F89388D498D5A8DCA01B901F4
:103470000E94582D6B017C012BA13CA14DA15EA1A6
:10348000CA01B9010E94582D9B01AC01C701B601C8
:103490000E94982A6B017C01A3019201C301B20131
:1034A0000E94582D9B01AC01C701B6010E94982AC9
:1034B0006B017C01A5019401C501B4010E94582D46
:1034C0009B01AC01C701B6010E94982A0E94CB2D36
:1034D0009B01AC0160E070E080E89FE30E94962BC6
:1034E0006B017C01AC019B016F89788D898D9A8D70
:1034F0000E94582D6093ED047093EE048093EF04C6
:103500009093F004A70196016BA17CA18DA19EA1CF
:1035100056CC28963FAD28973FA360964FAD609755
:103520002C964FAF2C9764965FAD6497A6965FAFCD
:10353000A69765965FAC65978BAC9FA8AFAC2496B9
:10354000BFAC2497612E702E3FA6422C3DCE28960C
:103550005FAC289760966FAC609764967FAC649779
:1035600065968FAD65978BA79BAD9BA3AFA96E9614
:10357000AFAF6E974FAC2496BFAD24976A96BFAF9E
:103580006A971F8B0FA7AA963FAEAA9766962FAE93
:10359000669761CE80913E058111B4C09E012F5F78
:1035A0003F4F42E061E4809153040E94A00769818B
:1035B0007A817627672776277093AC046093AB04F3
:1035C000072E000C880B990B0E94402C2CE53FEE37
:1035D00046EA53E40E94962B20E030E048EA51E4AA
:1035E0000E94982A6093AD047093AE048093AF0458
:1035F0009093B0042EEA37E441EC5FE36091FD0460
:103600007091FE048091FF04909100050E94972A1A
:103610000E94082C71956195710970935E05609305
:103620005D0524E13EEA47E050E4609101057091B8
:10363000020580910305909104050E94982A0E943A
:10364000082C71956195710970935C0560935B0519
:1036500020E030E0A9016091050570910605809198
:103660000705909108050E94982A0E94082C7093E3
:10367000600560935F056091D5047091D6048091D8
:10368000D7049091D8040E94082C7093620560932F
:1036900061056091D9047091DA048091DB04909106
:1036A000DC040E94082C70936405609363056091AC
:1036B000DD047091DE048091DF049091E0040E94AB
:1036C000082C719561957109709366056093650585
:1036D000C655DF4F0FB6F894DEBF0FBECDBFDF91EA
:1036E000CF911F910F91FF90EF90DF90CF90BF90FF
:1036F000AF909F908F907F906F905F904F903F9092
:103700002F9008958090F9049090FA04A090FB0403
:10371000B090FC048091F5049091F604A091F70418
:10372000B091F8048F87988BA98BBA8B4090F104E5
:103730005090F2046090F3047090F4042091ED0432
:103740003091EE044091EF045091F0042B8B3C8BB0
:103750004D8B5E8BCA01B9010E94582D6FAB78AFBB
:1037600089AF9AAFA3019201C301B2010E94582D03
:1037700023966CAF7DAF8EAF9FAF23972F8538898F
:1037800049895A89CA01B9010E94582D27966CAF00
:103790007DAF8EAF9FAF2797A5019401C501B401FE
:1037A0000E94582D2B966CAF7DAF8EAF9FAF2B979D
:1037B0002B893C894D895E89C301B2010E94582D35
:1037C0006B017C012F85388949895A89C501B4016B
:1037D0000E94582D9B01AC01C701B6010E94982A96
:1037E0009B01AC010E94982A6B8F7C8F8D8F9E8FDE
:1037F000A3019201C501B4010E94582D6B017C0107
:103800002B893C894D895E896F85788989899A8958
:103810000E94582D9B01AC01C701B6010E94972A56
:103820009B01AC010E94982A6BAB7CAB8DAB9EAB2D
:1038300023962CAD3DAD4EAD5FAD23976FA978AD0E
:1038400089AD9AAD0E94972A27962CAD3DAD4EAD1D
:103850005FAD27970E94972A2B962CAD3DAD4EADBC
:103860005FAD2B970E94982A6BAF7CAF8DAF9EAF58
:103870009B01AC016B8D7C8D8D8D9E8D0E94322BBA
:103880006B017C016BA97CA98DA99EA90E94042BC8
:1038900063966CAF7DAF8EAF9FAF639723962CADD1
:1038A0003DAD4EAD5FAD23976FA978AD89AD9AADB3
:1038B0000E94982A27962CAD3DAD4EAD5FAD27975F
:1038C0000E94972A2B962CAD3DAD4EAD5FAD2B9748
:1038D0000E94972A6FAB78AF89AF9AAFA30192018C
:1038E0006F85788989899A890E94582D2B013C011E
:1038F0002B893C894D895E89C501B4010E94582DF0
:103900009B01AC01C301B2010E94982A9B01AC014A
:103910000E94982A2FA938AD49AD5AAD0E94322B8A
:103920004B015C0120EE3EE245E652E4C701B601E0
:103930000E94582D6093FD047093FE048093FF0451
:103940009093000563966CAD7DAD8EAD9FAD639792
:10395000905820EE3EE245E652E40E94582D6093D6
:10396000010570930205809303059093040520EEF2
:103970003EE245E652E4C501B4010E94582D209173
:10398000A7043091A8044091A9045091AA040E9470
:10399000982A6B017C0120E030E044E353E40E946C
:1039A0004B2D87FD11C020E030E044EB53E4C7010C
:1039B000B6010E94972A60930505709306058093CF
:1039C00007059093080512C020E030E044E353EC73
:1039D000C701B6010E94912B87FD4BC0C09205051F
:1039E000D0920605E0920705F09208052B8D3C8DDC
:1039F0004D8D5E8D6091C9047091CA048091CB0495
:103A00009091CC040E94982A6093090570930A054E
:103A100080930B0590930C052BA93CA94DA95EA999
:103A20006091CD047091CE048091CF049091D00428
:103A30000E94982A60930D0570930E0580930F05E0
:103A4000909310052BAD3CAD4DAD5EAD6091D104B2
:103A50007091D2048091D3049091D4040E94972A4B
:103A600060931105709312058093130590931405CC
:103A7000C1CD20E030E044EB53E4C701B6010E9421
:103A8000982A99CF85ED8093BC008091A0039091F6
:103A9000A103A091A203B091A3030796A11DB11D9C
:103AA00023E0B695A795979587952A95D1F720910C
:103AB000BC0024FD03C010929E0308954091A00312
:103AC0005091A1036091A2037091A303452B462B53
:103AD000472B69F30097A105B10541F02AE22A9529
:103AE000F1F700C00197A109B109E1CF80919F03CF
:103AF0000C94F5031F920F920FB60F9211242F937F
:103B00003F934F935F936F937F938F939F93AF9365
:103B1000BF93CF93DF93EF93FF938091FB02C0910C
:103B2000FC02D0E087FF24C0109285001092840030
:103B30008091FB028F5F8093FB028091FB02082E35
:103B4000000C990B8C179D0724F48091FB028C309C
:103B5000C4F18091840090918500049680349C4942
:103B600008F47AC08091840090918500049676C014
:103B70008091FB02082E000C990B8C179D07C4F650
:103B8000E091FB028E2FEE0F990BFC01EE0FFF1F51
:103B9000E80FF91FE350FD4F808186FFC9CFE09108
:103BA000FB028E2FEE0F990BFC01EE0FFF1FE80FAB
:103BB000F91FE350FD4F808160E08F730E948B03FB
:103BC000B7CF2091840030918500E091FB028E2FC9
:103BD000EE0F990BFC01EE0FFF1FE80FF91FE350EA
:103BE000FD4F81819281820F931F90938900809372
:103BF0008800E091FB028E2FEE0F990BFC01EE0F77
:103C0000FF1FE80FF91FE350FD4F808186FF11C0B1
:103C1000E091FB028E2FEE0F990BFC01EE0FFF1FC0
:103C2000E80FF91FE350FD4F808161E08F730E9420
:103C30008B03FF91EF91DF91CF91BF91AF919F9156
:103C40008F917F916F915F914F913F912F910F9045
:103C50000FBE0F901F90189580E49CE99093890007
:103C6000809388008FEF8093FB02E3CF1F920F9227
:103C70000FB60F9211242F933F934F935F936F933F
:103C80007F938F939F93AF93BF93EF93FF93809115
:103C9000B900887F803609F44AC0F0F5883209F40B
:103CA000A7C018F5803109F49BC0B8F4882309F443
:103CB000F9C0883009F494C0FF91EF91BF91AF91A2
:103CC0009F918F917F916F915F914F913F912F9134
:103CD0000F900FBE0F901F901895883109F488C07F
:103CE000803251F780937C0314C0803409F49DC066
:103CF00040F48033B9F38833F9F680937C0385EC84
:103D0000B0C0803509F485C0883509F496C0883480
:103D100099F60E94421DD0CF883909F48CC038F53D
:103D2000883729F050F4883611F0803729F683E07F
:103D300080939E031092FA0257C0883809F47BC022
:103D4000803919F0803809F0B7CF8091FA028032BB
:103D500008F071C0E091FA0281E08E0F8093FA02C0
:103D60008091BB00F0E0E652FD4F80833DC0803B78
:103D700039F0E0F4803A09F479C0883A09F09CCF30
:103D800084E080939E031092D7021092D602E091B5
:103D9000D402F091D50209958091D60281110FC00D
:103DA00081E08093D6021092B40209C0803C09F4ED
:103DB000A6CF883C09F4A3CF883B09F07DCFE091E2
:103DC000D70281E08E0F8093D702F0E0EC54FD4FD4
:103DD00080818093BB009091D7028091D60229C048
:103DE000809179038093BB0085EC8093BC0064CF05
:103DF00090917B0380917A03981758F5E0917B03AB
:103E000081E08E0F80937B03F0E0E85AFC4F8081C5
:103E1000E9CFE0917B0381E08E0F80937B0380915B
:103E2000BB00F0E0E85AFC4F808390917B038091C7
:103E30007A039817C8F285E8D8CFE0917B0381E038
:103E40008E0F80937B038091BB00F0E0E85AFC4F1B
:103E5000808380917D0381115CCF81E08093780322
:103E600084EA8093BC0010929E0326CF85EC809359
:103E7000BC0010929E038091FA02803230F4E091EF
:103E8000FA02F0E0E652FD4F10826091FA0270E013
:103E9000E091D802F091D9028AED92E00995109252
:103EA000FA020ACF10927C0334CF1F920F920FB602
:103EB0000F9211242F933F934F935F936F937F93B0
:103EC0008F939F93AF93BF93CF93EF93FF9399B14A
:103ED00080912503C091B202C923282F2095C223C7
:103EE0002091B1028223292F20958223C82B909301
:103EF0002503C5FF4BC00E9416046093890270938E
:103F00008A0280938B0290938C0240918902509197
:103F10008A0260918B0270918C028091850290914F
:103F20008602A0918702B091880284179507A607A0
:103F3000B70764F58091890290918A02A0918B0263
:103F4000B0918C0240918502509186026091870267
:103F500070918802841B950BA60BB70B809381028E
:103F600090938202A0938302B0938402809189028D
:103F700090918A02A0918B02B0918C02809385026D
:103F800090938602A0938702B0938802C2FF4BC031
:103F90000E94160460939502709396028093970294
:103FA00090939802409195025091960260919702E9
:103FB000709198028091910290919202A091930247
:103FC000B091940284179507A607B70764F580910E
:103FD000950290919602A0919702B091980240911B
:103FE0009102509192026091930270919402841B0D
:103FF000950BA60BB70B80938D0290938E02A09326
:104000008F02B09390028091950290919602A091B8
:104010009702B09198028093910290939202A0939C
:104020009302B0939402C3FF4BC00E9416046093A6
:10403000A1027093A2028093A3029093A4024091E4
:10404000A1025091A2026091A3027091A4028091FA
:104050009D0290919E02A0919F02B091A0028417B0
:104060009507A607B70764F58091A1029091A20277
:10407000A091A302B091A40240919D0250919E0292
:1040800060919F027091A002841B950BA60BB70B49
:104090008093990290939A02A0939B02B0939C0202
:1040A0008091A1029091A202A091A302B091A402DA
:1040B00080939D0290939E02A0939F02B093A002D2
:1040C000C4FF4BC00E9416046093AD027093AE0211
:1040D0008093AF029093B0024091AD025091AE0236
:1040E0006091AF027091B0028091A9029091AA02F2
:1040F000A091AB02B091AC0284179507A607B70751
:1041000064F58091AD029091AE02A091AF02B091A2
:10411000B0024091A9025091AA026091AB02709145
:10412000AC02841B950BA60BB70B8093A502909352
:10413000A602A093A702B093A8028091AD0290912D
:10414000AE02A091AF02B091B0028093A902909309
:10415000AA02A093AB02B093AC02FF91EF91CF9172
:10416000BF91AF919F918F917F916F915F914F918F
:104170003F912F910F900FBE0F901F9018951F9297
:104180000F920FB60F9211242F933F938F939F930B
:10419000AF93BF938091210390912203A0912303B9
:1041A000B091240330917C0223E0230F2D3758F582
:1041B0000196A11DB11D20937C0280932103909351
:1041C0002203A0932303B093240380917D02909156
:1041D0007E02A0917F02B09180020196A11DB11DC7
:1041E00080937D0290937E02A0937F02B093800221
:1041F000BF91AF919F918F913F912F910F900FBEE3
:104200000F901F90189526E8230F0296A11DB11D4F
:10421000D2CF1F920F920FB60F9211242F933F937C
:104220004F935F936F937F938F939F93AF93BF93BE
:10423000EF93FF9380EB93E00E94E802FF91EF91F0
:10424000BF91AF919F918F917F916F915F914F91AE
:104250003F912F910F900FBE0F901F9018951F92B6
:104260000F920FB60F9211242F938F939F93EF937A
:10427000FF93E091C003F091C1038081E091C603F8
:10428000F091C70382FD1BC090818091C9038F5FAD
:104290008F732091CA03821741F0E091C903F0E0C7
:1042A000E055FC4F958F8093C903FF91EF919F914B
:1042B0008F912F910F900FBE0F901F9018958081B6
:1042C000F4CF99B190932503EDE6F0E09081892B2E
:1042D0008083E8E6F0E08081846080830895CF9356
:1042E000DF9390E0FC01E650FF4F24918A519F4FED
:1042F000FC0184918823D1F090E0880F991FFC0184
:10430000EE52FF4FA591B491FC01E452FF4FC591CD
:10431000D491623071F49FB7F8943C91822F8095CC
:1043200083238C93E8812E2B28839FBFDF91CF912D
:1043300008958FB7F894EC912E2B2C938FBFF6CF66
:104340001F93CF93DF93EC01162F88818C3008F0F8
:104350004EC061E0812F0E946F218881282F30E0BC
:10436000F901EE0FFF1FE20FF31FE350FD4F1F7324
:104370006081607C612B608319821A822CE0622F3D
:104380000E94852A829FB001112430E020E0AB0119
:10439000420F531FFA01EE0FFF1FE40FF51FE3500A
:1043A000FD4F908196FD16C02F5F3F4F2C30310599
:1043B00071F781110FC01092800082E0809381001C
:1043C0001092850010928400B19A80916F008260F3
:1043D00080936F00E8818E2F90E0FC01EE0FFF1FAD
:1043E000E80FF91FE350FD4F80818064808388814E
:1043F000DF91CF911F910895FC019091FC029C30B8
:1044000098F481E0890F8093FC029083892F90E0DB
:10441000FC01EE0FFF1FE80FF91FE350FD4F88EB83
:104420009BE09283818308958FEF80830895CF92DC
:10443000DF92EF92FF920F931F93CF93DF93E4EA03
:10444000F3E01382128288EE93E0A0E0B0E0848370
:104450009583A683B7832EE431E031832083E0EB9C
:10446000F3E01382128284839583A683B78380E668
:1044700091E09183808385EC90E09587848784EC3C
:1044800090E09787868780EC90E0918B808B81EC21
:1044900090E0938B828B82EC90E0958B848B86EC02
:1044A00090E0978B868B118E128E138E148E88E17E
:1044B00090E00E94292EEC01C12CD12C80E2E82E44
:1044C00081E4F82EC882D982EA82FB821886198696
:1044D0001A861B861C821D821E821F82CE010E94AC
:1044E000AC010DE414E0D801CD93DC9388E190E0B9
:1044F0000E94292EEC01C882D982EA82FB821886AA
:1045000019861A861B861C821D821E821F820E94AB
:10451000AC01F801D383C28388E190E00E94292E88
:10452000EC01C882D982EA82FB82188619861A8633
:104530001B861C821D821E821F820E94AC01D80134
:104540001596DC93CE931497C3E5D4E088E6888370
:104550001A8219821C821B8281E090E09E838D83E7
:1045600024E02F8323E02887298711E01A872B87EF
:104570001C861D861E861F86188A198A1A8A1B8A1F
:104580001C8A1D8A1E8A1F8A2CE0E6E0F1E0ABE659
:10459000B4E001900D922A95E1F72CE0E2E1F1E020
:1045A000A7E7B4E001900D922A95E1F718AA19AA9D
:1045B0001AAA1BAA1CAA1DAA1EAA1FAA18AE19AEC7
:1045C0001AAE1BAE1CAE1DAE1EAE1FAE10929304F3
:1045D00010929404109295041092960410929704ED
:1045E000109298041092990410929A042CE0EEE133
:1045F000F1E0ABE9B4E001900D922A95E1F746EFC6
:1046000058E260E071EC4093A7045093A8046093D3
:10461000A9047093AA041092AC041092AB041092F7
:10462000AD041092AE041092AF041092B004E1EB0E
:10463000F4E028E1DF011D922A95E9F71092C90400
:104640001092CA041092CB041092CC041092CD04A4
:104650001092CE041092CF041092D0041092D10484
:104660001092D2041092D3041092D4041092D50464
:104670001092D6041092D7041092D8041092D90444
:104680001092DA041092DB041092DC041092DD0424
:104690001092DE041092DF041092E0041092E10404
:1046A0001092E2041092E3041092E4041092E504E4
:1046B0001092E6041092E7041092E8041092E904C4
:1046C0001092EA041092EB041092EC0440E050E0E7
:1046D00060E87FE34093ED045093EE046093EF04B1
:1046E0007093F0041092F1041092F2041092F3040B
:1046F0001092F4041092F5041092F6041092F7044C
:104700001092F8041092F9041092FA041092FB042B
:104710001092FC041092FD041092FE041092FF040B
:1047200010920005109201051092020510920305E7
:1047300010920405109205051092060510920705C7
:10474000109208051092090510920A0510920B05A7
:1047500010920C0510920D0510920E0510920F0587
:104760001092100510921105109212051092130567
:104770001092140543EC58EB62E37FE34093150578
:10478000509316056093170570931805109219053C
:1047900010921A0510921B0510921C054EE057EC62
:1047A0006AE17FE340931D0550931E0560931F054A
:1047B0007093200510922105109222051092230576
:1047C0001092240540E050E060EF71E4409325052D
:1047D00050932605609327057093280510922905AC
:1047E00010922A0510922B0510922C0590932E05FD
:1047F00080932D0510922F051092300510923105EF
:10480000109232051092330510923405109235053E
:10481000109236051092370510923805109239051E
:1048200010923A0590933C0580933B0510923D050C
:1048300010933E0510923F0583E495E00E94FC2111
:1048400010924705109246051092490510924805AE
:104850008AE495E00E94FC2110924E0510924D05CD
:104860001092500510924F0581E595E00E94FC21C1
:104870001092550510925405109257051092560546
:10488000109259051092580510935A051092600520
:1048900010925F051092660510926505DF91CF9129
:1048A0001F910F91FF90EF90DF90CF900895CF93DD
:1048B000DF93CDB7DEB762970FB6F894DEBF0FBEB9
:1048C000CDBF789484B5826084BD84B5816084BD99
:1048D00085B5826085BD85B5816085BD80916E009E
:1048E000816080936E0010928100809181008260CF
:1048F000809381008091810081608093810080910C
:1049000080008160809380008091B10084608093FA
:10491000B1008091B00081608093B00080917A00F6
:10492000846080937A0080917A00826080937A001C
:1049300080917A00816080937A0080917A0080680B
:1049400080937A001092C1001092330310923203C8
:1049500010923503109257030E94D70383E292E02E
:104960009093D5028093D40284E292E09093D9028E
:104970008093D8021092B800FE01319685E0DF01E5
:104980001D928A95E9F788E68093530481E090E0D0
:104990009E838D8384E08F8383E08887898791E07D
:1049A0009A878B878BE0A4E5B4E001900D928A95FD
:1049B000E1F784EA93E0909341058093400565E731
:1049C00088E60E94F207182F80913F05882379F02E
:1049D0008FE891E00E945C06612F70E090E080E03B
:1049E00040E10E9469068EE691E00E945C0680E943
:1049F000810F823018F0133709F030C380915404CE
:104A00009091550484309105D0F5880F991F880F37
:104A1000991FFC01E65CFE4F80819181A281B381E8
:104A200080935F0490936004A0936104B093620448
:104A300080915604909157048430910520F5880F99
:104A4000991F880F991FFC01E65DFE4F80819181BF
:104A5000A281B3818093630490936404A09365045E
:104A6000B09366048091580490915904009779F0AE
:104A7000019709F4DDC280E090E0DC010CC080E029
:104A800090E0DC01CDCF80E090E0DC01E3CF8FEF60
:104A90009BEEAFEBB0E48093670490936804A0931F
:104AA0006904B0936A0440E86BE6809153040E9465
:104AB000370864E670E080E090E00E94FA0540E08C
:104AC0006BE6809153040E94370864E670E080E052
:104AD00090E00E94FA0541E06BE6809153040E9449
:104AE000370868EC70E080E090E00E94FA054091A1
:104AF0005C046AE1809153040E94370840915A0493
:104B000069E1809153040E9437086BE1809153045E
:104B10000E94F20740915604440F440F440F8470E2
:104B2000842B40915B0440954370482B6BE180914E
:104B300053040E9437086CE1809153040E94F207ED
:104B400040915404440F440F440F8770482B6CE18C
:104B5000809153040E9437086DE1809153040E94B4
:104B6000F20740915D04440F440F440F4095487094
:104B7000807F482B80915E048770482B6DE1809187
:104B800053040E94370842E267E3809153040E9475
:104B9000370841E068E3809153040E94370864E6D7
:104BA00070E080E090E00E94FA0560E08CE00E94F6
:104BB000F207182F80913F05882379F083EA91E06E
:104BC0000E945C06612F70E090E080E040E10E946E
:104BD00069068EE691E00E945C06183409F02DC249
:104BE00040E06AE08CE00E9437086AE070E080E014
:104BF00090E00E94FA054FE06AE08CE00E943708DE
:104C00006AE070E080E090E00E94FA059E01245F77
:104C10003F4F43E060E18CE00E94A0076C85605844
:104C2000770B072E000C880B990B0E94402C20E07C
:104C300030E040E85BE30E94582D20E030E040E89F
:104C40005FE30E94982A60938304709384048093A6
:104C50008504909386046D856058770B072E000CB1
:104C6000880B990B0E94402C20E030E040E85BE389
:104C70000E94582D20E030E040E85FE30E94982A2F
:104C800060938704709388048093890490938A04C6
:104C90006E856058770B072E000C880B990B0E94CD
:104CA000402C20E030E040E85BE30E94582D20E0FB
:104CB00030E040E85FE30E94982A60938B04709391
:104CC0008C0480938D0490938E0440E06AE08CE025
:104CD0000E9437086AE070E080E090E00E94FA05E8
:104CE000409158044295407F46606AE08CE00E9403
:104CF00037086AE070E080E090E00E94FA05809159
:104D00003F05882371F186EB91E00E94AD0687EDA7
:104D100091E00E945C06609183047091840480910C
:104D20008504909186040E94BB0688EF91E00E9462
:104D30005C06609187047091880480918904909149
:104D40008A040E94BB0689E192E00E945C066091A1
:104D50008B0470918C0480918D0490918E040E943C
:104D6000BB0681E080933D0569E070E083E495E057
:104D70000E94A02162E082E00E946F210091B202B5
:104D80001091B10284E00E9461216AE070E08AE43F
:104D900095E00E94A02162E083E00E946F2188E0FC
:104DA0000E9461216BE070E081E595E00E94A02106
:104DB00062E084E00E946F2180E10E94612162E054
:104DC00085E00E946F210C630093B2021C63109374
:104DD000B10280E20E94612108EE13E00E9468089F
:104DE00001501109D9F784E1482E85E0582E612C35
:104DF000712C98EE892E93E0992EA12CB12C20E0F5
:104E0000222E20E0322E2FB7F8948091210390912A
:104E10002203A0912303B09124032FBF8093780233
:104E200090937902A0937A02B0937B021FB7F89413
:104E30008091810290918202A0918302B0918402BC
:104E4000883E9340A105B10514F1809181029091B3
:104E50008202A0918302B0918402813D9740A10516
:104E6000B105ACF48091810290918202A0918302FD
:104E7000B091840220915A05883047E09407A1053B
:104E8000B1050CF4F2C051E0213009F026C1809147
:104E90008D0290918E02A0918F02B0919002883E77
:104EA0009340A105B105CCF080918D0290918E02C6
:104EB000A0918F02B0919002813D9740A105B1056C
:104EC00064F480918D0290918E02A0918F02B09136
:104ED00090029093490580934805809199029091A2
:104EE0009A02A0919B02B0919C02883E9340A1053A
:104EF000B105CCF08091990290919A02A0919B0209
:104F0000B0919C02813D9740A105B10564F4809168
:104F1000990290919A02A0919B02B0919C02909369
:104F2000500580934F058091A5029091A602A09113
:104F3000A702B091A802883E9340A105B105CCF02C
:104F40008091A5029091A602A091A702B091A8021B
:104F5000813D9740A105B10564F48091A50290912F
:104F6000A602A091A702B091A80290935705809342
:104F700056051FBF0E9468088091780290917902BF
:104F8000A0917A02B0917B028F87988BA98BBA8B04
:104F90008091740290917502A0917602B09177028F
:104FA0002F85388949895A89281B390B4A0B5B0B95
:104FB000DA01C9014497A105B10570F180915A0544
:104FC000823009F48DC0833009F477C10E94BC009F
:104FD000609146057091470583E495E00E94C50104
:104FE00060914D0570914E058AE495E00E94C501DF
:104FF000609154057091550581E595E00E94C501C9
:105000002F85388949895A89209374023093750213
:1050100040937602509377022114310409F4F3CEC1
:105020000E947703882309F4EECE0E940000EBCEA5
:105030008FEF9BEEAFEBBFE32ECD80913F05882332
:1050400021F08AE392E00E94AD0610923D0568EEE1
:1050500073E080E090E00E94FA05F9CF80913F056F
:10506000882399F386E592E0EECF805B9440A10916
:10507000B10989359240A105B105C8F4223009F47F
:1050800006CF80914D0490914E040E94AC01809116
:105090004F04909150040E94AC0180915104909172
:1050A00052040E94AC0142E040935A05F0CE2330F6
:1050B00009F4EDCE80914D0490914E040E94AC0114
:1050C00080914F04909150040E94AC018091510452
:1050D000909152040E94AC0153E050935A05D7CEF0
:1050E0002091480530914905C9018C5D9540D12C2E
:1050F000C12C4597A8F050E040E0285E33404109BC
:105100005109A2E8B0E00E94492AA50194010E9439
:105110002A2A69017A0181E4C81AD108E108F10854
:10512000D0924705C092460520914F053091500519
:10513000C9018C5D9540F12CE12C459798F050E029
:1051400040E0285E334041095109A2E8B0E00E94E6
:10515000492AA50194010E942A2A215431094109B2
:1051600051097901F0924E05E0924D0520915605C6
:1051700030915705C9018C5D9540459708F49AC058
:1051800050E040E0285E334041095109A2E8B0E018
:105190000E94492AA50194010E942A2A215431091A
:1051A00041095109309355052093540580916305B9
:1051B00090916405E81AF90A809165059091660559
:1051C0008901081B190B8091610590916205B60158
:1051D000681B790B80914D0490914E040E94ED0064
:1051E0009093470580934605B70180914F049091B5
:1051F00050040E94ED0090934E0580934D05B80138
:1052000080915104909152040E94ED008C012091F4
:10521000460530914705032E000C440B550B2657CD
:105220003D4F4F4F5F4FA8EEB3E00E94492AA301C4
:1052300092010E942A2A28513C4F4F4F5F4F3093D2
:1052400047052093460520914D0530914E05032ECC
:10525000000C440B550B26573D4F4F4F5F4FA8EEA8
:10526000B3E00E94492AA30192010E942A2A2851F0
:105270003C4F4F4F5F4F30934E0520934D05012E0D
:10528000000C220B330BA901980126573D4F4F4FBD
:105290005F4FA8EEB3E00E94492AA30192010E9449
:1052A0002A2A28513C4F4F4F5F4F3093550520938A
:1052B00054058ECE30E020E075CF20914805309126
:1052C0004905C9018C5D9540D12CC12C4597A8F0AA
:1052D00050E040E0285E334041095109A8E7B0E0C2
:1052E0000E94492AA50194010E942A2A69017A0193
:1052F0009CE3C91AD108E108F108D0924705C09291
:10530000460520914F0530915005C9018C5D9540AF
:10531000F12CE12C459798F050E040E0285E3340B6
:1053200041095109A8E7B0E00E94492AA50194016A
:105330000E942A2A2C533109410951097901F0921E
:105340004E05E0924D052091560530915705C90153
:105350008C5D9540459708F47AC050E040E0285EA7
:10536000334041095109A2E8B0E00E94492AA50151
:1053700094010E942A2A215431094109510930938C
:1053800055052093540580915B0590915C05E81AC2
:10539000F90A80916505909166058901081B190B32
:1053A00080915D0590915E05B601681B790B809137
:1053B0004D0490914E040E94ED0090934705809318
:1053C0004605B70180914F04909150040E94ED0072
:1053D00090934E0580934D05B801809151049091B2
:1053E00052040E94ED008C01209146053091470542
:1053F000032E000C440B550B285A3D4F4F4F5F4F67
:10540000A8EEB3E00E94492A20EB34E040E050E0EF
:105410000E942A2A28513C4F4F4F5F4F3093470537
:105420002093460520914D0530914E05032E000C2A
:10543000440B550B285A3D4F4F4F5F4FA8EEB3E03A
:105440000E94492A20EB34E040E050E00ECF30E0EB
:1054500020E095CF052E97FB1EF400940E94412A70
:1054600057FD07D00E94542A07FC03D04EF40C9439
:10547000412A50954095309521953F4F4F4F5F4FB2
:10548000089590958095709561957F4F8F4F9F4FB0
:1054900008950E94762AA59F900DB49F900DA49F19
:1054A000800D911D11240895A1E21A2EAA1BBB1B89
:1054B000FD010DC0AA1FBB1FEE1FFF1FA217B307E0
:1054C000E407F50720F0A21BB30BE40BF50B661FF6
:1054D000771F881F991F1A9469F7609570958095BA
:1054E00090959B01AC01BD01CF010895A29FB00131
:1054F000B39FC001A39F700D811D1124911DB29F08
:10550000700D811D1124911D0895991B79E004C02F
:10551000991F961708F0961B881F7A95C9F78095F2
:105520000895EE0FFF1F0590F491E02D0994505857
:10553000BB27AA270E94AF2A0C94112D0E94032D8D
:1055400038F00E940A2D20F039F49F3F19F426F418
:105550000C94C52C0EF4E095E7FB0C94BF2CE92FBE
:105560000E94222D58F3BA17620773078407950724
:1055700020F079F4A6F50C94442D0EF4E0950B2E52
:10558000BA2FA02D0B01B90190010C01CA01A00195
:105590001124FF27591B99F0593F50F4503E68F1F0
:1055A0001A16F040A22F232F342F4427585FF3CF31
:1055B000469537952795A795F0405395C9F77EF402
:1055C0001F16BA0B620B730B840BBAF09150A1F04B
:1055D000FF0FBB1F661F771F881FC2F70EC0BA0FD1
:1055E000621F731F841F48F4879577956795B79559
:1055F000F7959E3F08F0B0CF9395880F08F0992754
:10560000EE0F9795879508959F939F77EEE38937DF
:105610009E0728F4E8E6F0E00E94EF2C0CC00E9400
:105620007B2C9058A2EA2AED3FE049EC5FE30E9410
:10563000AF2A0E94112D0F9007FC905808950E94E8
:10564000032D60F080E891E009F49EEF0E940A2D9E
:1056500028F040E851E071F45EEF0CC00C94C52CCA
:105660000C94442DE92FE0780E94222D40F3092E5E
:10567000052AB1F3261737074807590738F00E2EC9
:1056800007F8E02569F0E025E0640AC0EF6307F859
:10569000009407FADB01B9019D01DC01CA01AD01EB
:1056A000EF930E94AD2B0E94112D0E94622B5F91FF
:1056B000552339F02BED3FE049E450FD49EC0C94C3
:1056C000982A0895DF93DD27B92FBF7740E85FE37D
:1056D0001616170648075B0718F4D92F0E94502D9D
:1056E0009F938F937F936F930E940B2EECE7F0E0D4
:1056F0000E94C82C0E94112D2F913F914F915F91D4
:105700000E946B2DDD2351F09058A2EA2AED3FE074
:1057100049EC5FE3D0785D270E94AF2ADF910C94BB
:10572000112D0E949B2C08F481E008950E94AA2B61
:105730000C94112D0E940A2D58F00E94032D40F068
:1057400029F45F3F29F00C94BF2C51110C94452D86
:105750000C94C52C0E94222D68F39923B1F3552394
:1057600091F3951B550BBB27AA2762177307840774
:1057700038F09F5F5F4F220F331F441FAA1FA9F30A
:1057800035D00E2E3AF0E0E832D091505040E695F8
:10579000001CCAF72BD0FE2F29D0660F771F881F59
:1057A000BB1F261737074807AB07B0E809F0BB0B4C
:1057B000802DBF01FF2793585F4F3AF09E3F510560
:1057C00078F00C94BF2C0C94452D5F3FE4F3983E89
:1057D000D4F3869577956795B795F7959F5FC9F749
:1057E000880F911D9695879597F90895E1E0660FCA
:1057F000771F881FBB1F621773078407BA0720F043
:10580000621B730B840BBA0BEE1F88F7E0950895AB
:105810000E940F2C6894B1110C94452D08950E949C
:105820002A2D88F09F5798F0B92F9927B751B0F0DB
:10583000E1F0660F771F881F991F1AF0BA95C9F714
:1058400014C0B13091F00E94442DB1E008950C9441
:10585000442D672F782F8827B85F39F0B93FCCF3F4
:10586000869577956795B395D9F73EF49095809591
:10587000709561957F4F8F4F9F4F0895E89409C0B1
:1058800097FB3EF490958095709561957F4F8F4F73
:105890009F4F9923A9F0F92F96E9BB279395F69589
:1058A000879577956795B795F111F8CFFAF4BB0F07
:1058B00011F460FF1BC06F5F7F4F8F4F9F4F16C06B
:1058C000882311F096E911C0772321F09EE8872FF5
:1058D000762F05C0662371F096E8862F70E060E0B1
:1058E0002AF09A95660F771F881FDAF7880F96952A
:1058F000879597F90895DF93CF931F930F938B01AB
:10590000EC01E9EAF0E00E94C82C0E94112D9801F8
:10591000AE018B01EC0160E070E080E89FE30E9443
:10592000972A0E94CB2D9801AE010F911F91CF9124
:10593000DF910C946B2D990F0008550FAA0BE0E82E
:10594000FEEF16161706E807F907C0F01216130641
:10595000E407F50798F0621B730B840B950B39F481
:105960000A2661F0232B242B252B21F408950A26E7
:1059700009F4A140A6958FEF811D811D089597F927
:105980009F6780E870E060E008959FEF80EC0895E5
:10599000DF93CF931F930F93FF92EF92DF927B01E0
:1059A0008C01689406C0DA2EEF010E946B2DFE0177
:1059B000E894A5912591359145915591A6F3EF0174
:1059C0000E94AF2AFE019701A801DA9469F7DF90DF
:1059D000EF90FF900F911F91CF91DF9108959F93CA
:1059E0008F937F936F93FF93EF939B01AC010E9482
:1059F000582DEF91FF910E94C82C2F913F914F910C
:105A00005F910C94582D00240A9416161706180658
:105A10000906089500240A941216130614060506B2
:105A20000895092E0394000C11F4882352F0BB0F43
:105A300040F4BF2B11F460FF04C06F5F7F4F8F4FA6
:105A40009F4F089557FD9058440F551F59F05F3FE1
:105A500071F04795880F97FB991F61F09F3F79F090
:105A600087950895121613061406551FF2CF469512
:105A7000F1DF08C0161617061806991FF1CF869594
:105A80007105610508940895E894BB276627772778
:105A9000CB0197F908950E949B2C08F48FEF08958D
:105AA0009B01AC0160E070E080E89FE30C94962BD2
:105AB0000E946B2D0C94112D0E94032D38F00E9432
:105AC0000A2D20F0952311F00C94BF2C0C94C52CBA
:105AD00011240C94452D0E94222D70F3959FC1F343
